:020000040000FA
:1000000088092020B5010000B9010000BB010000F3
:1000100000000000000000000000000000000000E0
:10002000000000000000000000000000BD01000012
:100030000000000000000000BF010000C10100003E
:10004000C301000029220000C3010000C301000019
:10005000C3010000C3010000C3010000C301000090
:1000600000000000C3010000C30100000000000008
:1000700000000000C3010000C301000019390000A6
:10008000C3010000C301000069380000C301000083
:10009000C3010000C30100000000000000000000D8
:1000A000C3010000C30100000000000000000000C8
:1000B000C301000000000000C3010000C3010000F4
:1000C00000F002F800F067F812A030C808382418D1
:1000D0002D18AC4201D100F05EF80FCCA246AB4621
:1000E0000CA730CF2D1B083F3F197C427F1E544484
:1000F0002D090426F441641EAC4201D300F04BF8F4
:100100000126334200D0FB1A3343984754465D46DC
:10011000DFE70000144C0000344C00000000000039
:10012000103A02D378C878C1FAD8520701D330C840
:1001300030C101D504680C60704700000000000069
:100140007047000000000000002300240025002666
:10015000103A01D378C1FBD8520700D330C100D583
:100160000B60704710B5662902D104F01DFA10BD6E
:10017000642902D100F07AF810BD002010BD1FB52F
:1001800000F07CFF04000020002104F067F8E0602C
:100190001FBD10B510BD01F079FB1146FFF7EFFF51
:1001A00003F024FC01F091FB03B4FFF7F2FF03BC62
:1001B00003F0E0FB06480047FEE7FEE7FEE7FEE748
:1001C000FEE7FEE703480449044A054B7047000078
:1001D000C1000000880320208809202088072020F3
:1001E000880720200FB4054910B503AA029800F033
:1001F000B3FE10BC08BC04B018470000A4002020C7
:10020000F8B50E460446002020622046E168884783
:10021000002829D0252802D06268A16820E0E16882
:1002200020460027884705001ED028464138192857
:1002300002D80127FF022035324620462760294692
:10024000FFF790FF002808D0012804D0F61DF6081B
:10025000F6000836D9E7361DD7E762682846A16858
:100260009047206A401CCFE7206AF8BDF7B500250B
:1002700075291068009914A611D0C046C046002800
:1002800002DA404211A608E0009909688A0701D500
:100290000FA602E0490704D50EA6012501E0C046DD
:1002A000C046009F0024243704E000F069FE30318E
:1002B0003955641C0028F8D12B4632462146009857
:1002C00000F0E8FBFEBD0000000000002D00000073
:1002D0002B0000002000000010B5044603E003F0EE
:1002E00073FB401C08D020780549641C0028F6D117
:1002F0000A2003F069FB10BD0020C04310BD0000C0
:10030000A4002020002203098B4273D3030A8B42EE
:1003100058D3030B8B423CD3030C8B4221D312E006
:1003200003460B437FD4002243088B4274D3030956
:100330008B425FD3030A8B4244D3030B8B4228D3F7
:10034000030C8B420DD30902FF2212BA030C8B421D
:1003500002D31212090265D0030B8B4219D300E0BD
:10036000090AC30B8B4201D3CB03C01A5241830B42
:100370008B4201D38B03C01A5241430B8B4201D3F2
:100380004B03C01A5241030B8B4201D30B03C01A1B
:100390005241C30A8B4201D3CB02C01A5241830A95
:1003A0008B4201D38B02C01A5241430A8B4201D3C4
:1003B0004B02C01A5241030A8B4201D30B02C01AEE
:1003C0005241CDD2C3098B4201D3CB01C01A524155
:1003D00083098B4201D38B01C01A524143098B42DE
:1003E00001D34B01C01A524103098B4201D30B01C7
:1003F000C01A5241C3088B4201D3CB00C01A5241EC
:1004000083088B4201D38B00C01A524143088B42B0
:1004100001D34B00C01A5241411A00D20146524149
:10042000104670475DE0CA0F00D04942031000D368
:10043000404253409C46002203098B422DD3030ABD
:100440008B4212D38901FC2212BA030A8B420CD3CD
:10045000890192118B4208D3890192118B4204D3F6
:1004600089013AD0921100E08909C3098B4201D376
:10047000CB01C01A524183098B4201D38B01C01AB0
:10048000524143098B4201D34B01C01A5241030927
:100490008B4201D30B01C01A5241C3088B4201D3D6
:1004A000CB00C01A524183088B4201D38B00C01A83
:1004B0005241D9D243088B4201D34B00C01A52415A
:1004C000411A00D201465241104663465B1001D3E7
:1004D0004042002B00D54942704763465B1000D371
:1004E000404201B50449002802DC491C084000E0F4
:1004F0000846C046C04602BDFFFFFF7F70477047F9
:10050000704700000246C80FC00781434B0030B55A
:100510004B405B009B0D20D01923DB06C91801233B
:100520001B05994220DB0324A40704251346AB4096
:100530000BD3002B04D1EB0613409B00E34204D401
:1005400001246407002312195941FF231B05994216
:100550000BD2C9000143500F09E0CB0204D501437F
:100560000803024305D0054830BDFF21C9050843F3
:1005700030BD084607210905884330BD0000C07F13
:100580001F22030C02D10F22000402D0030E03D05D
:1005900004E00020014670470002083A030F01D131
:1005A0000001121F830F01D18000921E002801DB81
:1005B0004000521E120551184205C0124118104643
:1005C0007047C10FC90700D0404201229207114372
:1005D000D6E701218907D3E7F0B58B4C0F092546F3
:1005E00089B0BD437BD01D092646AE43FAD00E46E6
:1005F0005E402740F60F3E43254071D02401214242
:10060000FBD0FF24AD19A4042D1B039501252D0556
:10061000DB02DB0AC9022B43C90A29431E01090177
:10062000040F130F050121431701880B8203914327
:100630002D098C46A90B1E438A039543B30B9A03DD
:1006400096433F09BA0B9403A74302962E467E4376
:100650000497B6464E19D7190C4601965443059790
:100660007E43371B7646BF1B3601B646BE0B361996
:1006700000967646BC043719009C01D3641C009494
:100680006400002F01D001263443029E049F75436D
:1006900066467E430496760034196E003419009441
:1006A000029C019E1C196643751BAE460694654666
:1006B0004519059C05956C43594375460891691A7F
:1006C0000191049E01465143A41B0491611A009CB0
:1006D0000791E10605D061090122114302E072E0B1
:1006E0006EE06109089D00272C0A2D066918049DFB
:1006F0007C412A0A2D066918019D6241AC0DAD02AC
:100700006D185441079A910D920255196141029A50
:10071000644658435443069B059A5A43121A131BC6
:100720009A0E9B015B187A41010B0005C3185141D9
:10073000220A200644195A419A4200D2491C01203B
:100740004002814203D315230226F64302E014231C
:100750000326F6432020C51AA9401746AF40DA40C9
:100760000A4320460399D8400914731819055118F3
:10077000039A3843D2075140AC4009D0012294403B
:1007800006D30022401C5141002C01D140084000FA
:100790001E4A934212D3012203989206904207DB2D
:1007A0000520400709181A480143C012414004E0DF
:1007B000032040070818C10FC907002009B0F0BD89
:1007C0000020F107FAE705180C464C4111486D422C
:1007D000A04115D394181A465A410E4864429041DC
:1007E0000ED301204A004005824209D35A008242BA
:1007F00006D35940C90F084AC90700201143DDE755
:1008000000200649DAE700000000FF07FE070000AD
:10081000FFFFFF7F0000E0FF0000F07F0000F87F97
:100820000121C9050123411842001B06D3185B0EA4
:100830000AD0C1100722D206891840075242D1427D
:1008400001D5520089187047090208D50146002ACF
:1008500003D0C10FC90700207047104670474202FD
:1008600002D0002002497047072109050143F4E73F
:100870000000F87FF0B5FF252D04C609C209FF2747
:1008800004462E400137CB093E4348402A402B40C6
:100890000746002A6BD0002B69D0AA4267D0AB4232
:1008A00065D0002800DA32460125ED0529432C43A6
:1008B00009022002090AD21A4B0C7F24E31A434C86
:1008C000000A7C44E35C7D242404121914145B00A8
:1008D000A218884201D3521C00E0400049420C4655
:1008E0005C4324115C43DB016415E318040A5C4398
:1008F000C502200D0C4644436419250A5D432303B9
:10090000EC0C0D46654300030019EB184C42A34262
:1009100001D35B18401CD4052018002B07D05B00C6
:10092000C91804D3401C002901D1400840003F21D0
:1009300089048A4209D3002A08DC1106090F04D071
:10094000032149074018C00FC007F0BD0122410034
:10095000120689187F2252069142F6D205214907D4
:10096000C84201D59010F0BDFF20C005F0BD002F9A
:1009700000DA32461648AA4207D2AB4205D2190223
:10098000090E17D0F80FC007F0BDFF2563002D0634
:10099000AB42F9D84900A942F6D8AB4201D1A942ED
:1009A000F2D0A94201D1002101E061004908D0053F
:1009B0000843F0BD1102090EFBD0FF200243D00511
:1009C000F0BD0A460146104654E70000F23C000024
:1009D0000000C07F10B501469E240002CA15A3077F
:1009E000002A02D01843002A04DBA21A002A0CDDD8
:1009F000D04010BD1206120E01D140004008A21ACC
:100A000003D4D04040420028F3DDFF224800120604
:100A1000904201D9002010BDC817C043584010BDF6
:100A20001F22030C02D10F2200041CD0030E01D19F
:100A30000002083A030F01D10001121F830F01D1F8
:100A40008000921E002801DB4000521ED205511882
:100A5000021251181922904004D3491C002801D1D8
:100A60004908490008467047C10FC90700D04042F5
:100A7000012292071143D3E701218907D0E710B57E
:100A800000F000FB006810BD10B5044600F0FAFA53
:100A9000046010BDFFB504460D4681B024300090BF
:100AA0002168880604D51022E0699143216000E0A6
:100AB0000120A84201DD471B00E000270498A1693E
:100AC0007A191018081AA0612078C00602D42046AE
:100AD000C046C046002608E003986268A168805DB1
:100AE0009047206A401C761C206204988642F3DB03
:100AF0002078C0060AD52046C046C04606E0626897
:100B0000A16830209047206A401C206238467F1E32
:100B10000028F4DC07E000986268A168405D904717
:100B2000206A401C206228466D1E0028F3DC204607
:100B3000C046C0462078000602D5022005B0F0BDB0
:100B40000120FBE7FFB50C461E468FB003CA089094
:100B500009914F007D0D00D16D1E00210846002037
:100B6000C0460321099A89050840002A03DA820059
:100B7000801840080840800D01280A9002DD0020FE
:100B8000C0430A90089807430DD0F048F049281850
:100B900048430714189800281DD07542291E1DDDF2
:100BA0000A9842421BE01898012802D00020302108
:100BB00004E00020F24305E02154401CB042FBDB7E
:100BC00030460022189B002121540F998B600A6047
:100BD000486013B0F0BDBD1B6D1CDFE70A9A002909
:100BE00000DA69420BA800F0EBFA0BAB07CB03ABC2
:100BF00007C30899099800F04FFB6B4607C30146ED
:100C0000D4480918002D00910BDDD24903980A9AA7
:100C100049424018002303A90390684600F0ACFD48
:100C200008E003990A9A0023081803A9039068466C
:100C300000F04CFD6B4607C30004000C03D00020FD
:100C4000C043410800E01046189A002A03D0002251
:100C5000009215461EE0751E05D400F017FA3032DA
:100C600062556D1EF9D501220843079602D0002275
:100C70007F1C04E02078302801D100227F1E002A4A
:100C8000069787D01EE0112D07DA00F0FFF9303209
:100C900062556D1C02460A43F5D1084303D0009803
:100CA000002819D00EE00021681E05E0235C625C7C
:100CB00063542254401E491C8142F7DBA81B401E8E
:100CC00007950690079A18990020A0540F98079B43
:100CD000069A81600CC07CE711260020189059E725
:100CE000D21DF0B50D460446D10893B0C90003C922
:100CF0000C900D9103F04CF802460D98C00F01D0F6
:100D00002D2007E02068810701D52B2002E0400755
:100D1000C00F4001032A0F9001D0072A05DB0346CC
:100D20002946204600F008FA0EE12078800601D519
:100D3000E76900E006272846652D04D0662814D010
:100D4000672D69D12DE00020112F009001DB1123C8
:100D500000E07B1C0CAA03A910A8FFF7F3FE119971
:100D6000002610987D1C0E9142E001203B460CAA03
:100D7000C0070B900120009003A910A8FFF7E2FE26
:100D8000119D12981099002600280E9501D1781C0B
:100D90000D18781B02D446427D1C761EE81B00907D
:100DA0003AE0012F00DA01270020112F009001DD29
:100DB000112300E03B460CAA03A910A8FFF7C2FECE
:100DC00011993D46109800260E91217809070BD401
:100DD0000E99A94200DA0D4603A9012D04DD4A1936
:100DE000203AD27F302A06D0B84201DA011D04DA57
:100DF000012100910FE06D1EEFE7002802DC86194B
:100E00002D1A03E0411CA94200DD0D46801B401C49
:100E100000900120C0070B902078000705D40098AF
:100E2000A84202DB0020C043009069460020C8723F
:100E30000B98012102AF0337C907884225D0022051
:100E400010902B2011900B9800280BDA40420B9049
:100E50002D20119006E00B9800F092F830317F1EA3
:100E60000B9039701099481E00291090F3DC0B98F4
:100E70000028F0D111987F1E38702088000501D518
:100E8000452000E065207F1E387001A8C01BC01DF2
:100E90000B900F98002800D0012041190098C0172E
:100EA00009180B980818A169081A401EA06120783B
:100EB000C00602D42046C046C0460F98002805D080
:100EC0006268A1689047206A401C20622078C006B2
:100ED00025D52046C046C04621E0002E07DB0E98EF
:100EE000B04204DD03A86268805DA16802E0626828
:100EF000A16830209047206A761C401C2062009830
:100F0000401E002800900AD100F0B8F8C06862685E
:100F10000168405CA1689047206A401C2062284616
:100F20006D1E0028D9DC07E062683878A1687F1C54
:100F30009047206A401C20620B99481E00290B90A4
:100F4000F2DC2046C046C046032042E601FCFFFF1B
:100F5000104D0000E1DFFFFF084B70B50D467B44EC
:100F600000F0D7F80446284600F056FC002802D0CE
:100F70000020C04370BD204670BD0000672A0000FD
:100F800001468008081A02091018020A1018020CFB
:100F90001018C008820012185200891A01E0401C83
:100FA0000A390A29FBD2704710B5FF22C30D13403E
:100FB00009D05A4007D0914205DA5C42A14202DDD5
:100FC000C905081810BDC40FE407002B06D0002A7D
:100FD00006D0002902DBFF20C0050443204610BDD7
:100FE0004102FCD0004810BD0000C07F30B5C30DE9
:100FF0001906214A090E31D0FF292FD000283ADBEB
:1010000001025002014301207D33C34000D2490850
:10101000012080071724091A240649088210234357
:10102000FF252D064C00211A04D4891A02D454003D
:10103000201800E0214652085B19F3D51A22044615
:10104000944007D382068A4203D1802180308843AE
:1010500000E08030C009D905081830BDFF2904D050
:101060004100FAD0C00FC00730BD410201D0104688
:1010700030BD0028FCDAFAE70000C07F0048704766
:101080004000202000487047200020200B4670B50B
:10109000024689078008084319469D08141AA94189
:1010A00025090807054308092C194841250A0106A6
:1010B0000D43010A2C194141200C0D0428430D0C4D
:1010C00000194D41002140194D41C00869070843EE
:1010D000E908840F8D002543840024184D4124190C
:1010E0006D41121BAB4107E00925ED432C1152194C
:1010F00063410024401C61411C460A250026551B03
:10110000B441F1D270BD000001694A1C0261087847
:10111000704700B58FB002910021059105490193F8
:1011200079440391114604906846FFF769F80FB0BF
:1011300000BD0000E5FFFFFFF8B51F460446012390
:101140000068DB02032601461840072A05DB002859
:1011500001D017A506E017A504E0002801D016A5C8
:1011600000E016A5102081432160A069C01E002F59
:10117000A06101D0401EA0612046C046C046002F9D
:1011800009D038466268A1689047206A401C2062F6
:10119000C01C206206E0206AFAE762682878A1682D
:1011A0006D1C9047761EF8D22046C046C046F8BD5A
:1011B0004E414E006E616E00494E4600696E6600FB
:1011C000F7B516468AB0334878446C4603467C33FC
:1011D000C06F5A689B680DC42E487844763003ACC3
:1011E0000DC80DC43720C001081837211B30FFF788
:1011F00097F805460C46803D1B3C02D56442012011
:1012000000E000200027099010E0E0070CD00C203F
:1012100020497843794432464C39411868460123C5
:1012200000F054FA6B4607C364107F1C002CECD10D
:10123000184F7F442E3F16E0E80712D02001C01956
:101240000EC80691089307920068F04201D19819E0
:1012500008903246012306A903A800F037FA03AB31
:1012600007C36D10641C002DE6D10998002806D034
:1012700032466946012303A800F07EFA05E0012307
:101280003246694603A800F021FA0A9B07C30DB055
:10129000F0BD00002C340000034640000A4610B5A3
:1012A000400D0BD00121C9070F24A40200191C0313
:1012B00064082143540D2143D20207E0002101209C
:1012C000F2E7D40F490021435200401E0029F8DA0A
:1012D000DB0FDB07184310BDFFB50D46144685B084
:1012E0004868516802F03BFD00910190A868A16830
:1012F00002F035FD02910390A868616802F02FFDAD
:10130000029A12188242029201D2012000E00020CB
:10131000019A0B18D2180028019202D08A4202D9F1
:1013200003E08A4201D2012000E000200099081861
:1013300000906868A16802F012FD029A12188242B9
:10134000029201D2012000E00020019A0B18D2186D
:101350000028019202D08A4202D903E08A4201D2D7
:10136000012000E0002000990818009028682168FA
:1013700040004900400849084018FA49471814E05D
:1013800001994000C90F084300900198029940005C
:10139000C90F08430190029803994000C90F084300
:1013A0000290039840007F1E039000980028E7DA1F
:1013B0000898002801D0EC4E00E00026B74201DA80
:1013C000012000E00020002804902AD0F71BF80636
:1013D000C00E15D0029B2021091A039A8B401A4394
:1013E0000392029A019BC2408B401A430292019AD7
:1013F000009BC2408B4000991A430192C14000916A
:101400007B110DD06F460320C11A03D50021820045
:10141000B95003E08A008100BA587A50401EF3D5D3
:10142000374603980299002800D00120014308980C
:101430000291002808460CD0002800D00120019914
:10144000019A490508430121D20AC902D202019238
:1014500000E001210E9B0122D207012B02D0002BBC
:1014600003D013E0002807D120E0904204D8904236
:101470000CD1019B0B4209D0019B5918019105D158
:101480000099491C009101D17F1C009200280DD0C9
:10149000102108460020C0460498002806D00F9866
:1014A000002803D0082108460020C046286821688B
:1014B000019B009A4840C10F0598C90739430EC0E7
:1014C00009B0F0BDFFB587B0099A0898089953682C
:1014D00092684068896896460022039317469446AE
:1014E000089A12685300099A5B0812685200520861
:1014F0009A1A9E4BD4180A9A002A01D0352200E08D
:10150000402206920022012315460492DB07059330
:1015100024E0002D05D175460346039E4D1BB341C3
:1015200009D375466646039B491B049D9841059B5C
:101530007519AC465F4163463B4308D0059B049E4A
:10154000DD0776082E435B080496059301E0521EE2
:10155000641EC50FED0749184041521C069B9A4274
:10156000D7DB002D04D17546039A6B1A824101D254
:1015700003200CE0039A0B466B404240134303D018
:10158000014303D0012002E0022000E00020614678
:1015900001910021009702910A99002905D0614626
:1015A00040020143704B019102E08007002302904A
:1015B0009C4201DA012000E0002007003AD01A1B0B
:1015C000D006C00E15D0029D2021019C091AC540ED
:1015D0008C402543029C8C4000D001242543019C73
:1015E0000295009DC4408D4000992C430194C14058
:1015F000009154111DD06D460221002202290CD108
:101600000320001B07E0002804DB8600AE59002EF3
:1016100000D00122401C0328F5DB081B02D58800FE
:101620002A5004E08000285810438A00A850491E20
:10163000E3D51C460A98002802980CD0002800D058
:1016400001200199019A490508430121D20AC902E2
:10165000D202019200E00121109B0122D207012B4E
:1016600002D0002B03D013E0002807D11FE09042E6
:1016700004D890420CD1019B0B4209D0019B591810
:10168000019105D10099491C009101D1641C00927F
:1016900000280CD0102108460020C046002F06D09C
:1016A0001198002803D0082108460020C046089859
:1016B0000999019A009B006809684840C10F079882
:1016C000C907214382600AC00BB0F0BD00B585B0E8
:1016D000019300920A460146002302A8FFF7FCFD91
:1016E00002A807C805B000BDFFB50A461F4685B071
:1016F0000799019301230091014602A8FFF7ECFD31
:1017000002990398049ECA0F4900D20700920F2243
:10171000490892028C1A0021002800DB0C46450083
:1017200013486D08844214D3079A002A04DA441E31
:101730000026104DF64302E004460D460E461021E9
:1017400008460020C046002F03D004210846002090
:10175000C0462005E90A0843009908436905F20AD2
:101760001143ADE602C0FFFF013C0000FF3F000057
:10177000FF070000FFFFFF7F00B585B001930092D7
:101780000A460146002302A8FFF79CFE02A807C8EC
:10179000A8E7FFB50A461F4685B0079901930123C4
:1017A0000091014602A8FFF78DFE02990398049E5E
:1017B000CA0F4900D20700920F22490892028C1AE0
:1017C0000021002800DB0C46450011486D088442CA
:1017D00014D3079A002A04DA441E00260D4DF6435E
:1017E00002E004460D460E46102108460020C04681
:1017F000002F03D0042108460020C0462005E90A36
:101800000843009908436905F20A114358E60000AD
:10181000FF070000FFFFFF7FC0688021084070477E
:1018200010B5FF231B0644009C421DD84C009C426F
:101830001AD80346124A0B4307D4401A02D3EFF3D7
:10184000008010BDEFF3008010BD081A03D3EFF342
:101850000080904305E0EFF3008001219043C90729
:10186000084380F3008810BD0D231B041A4204D0E6
:101870001146002000F08AF810BD00F09FF810BD5E
:101880000000009000487047200020207546FFF7B8
:10189000F9FFAE46050069465346C008C0008546BC
:1018A00018B020B5FEF78EFC60BCB64600260027B7
:1018B000C0C5C0C5C0C5C0C5C0C5C0C5C0C5C0C500
:1018C000403D490849008D46704710B50446C04662
:1018D000C0462046FEF768FC10BD000082078B075B
:1018E0009A423FD170B5920F0AD0032402780B7848
:1018F000401C491C002A33D09A4231D12042F5D1F4
:10190000214EF40104C808C9951B9543254018D100
:101910009A420FD104C808C9951B9543254010D1A0
:101920009A4207D104C808C9951B9543254008D1A0
:101930009A42E7D012BA1BBA01209A4200D2404222
:1019400070BD12BA1BBA2DBA18241000E04019005D
:10195000E140401A05D12E00E64002D1083CF4D106
:10196000D01A70BD02780B78401C491C002A09D09F
:101970009A4207D102780B78401C491C002A01D0FA
:101980009A42EFD0D01A704701010101C80212D566
:101990004803400F002804D0C803C04301218840F9
:1019A0007047EFF300800001000903210907084395
:1019B00080F30088704700207047000010B502488F
:1019C00000F004F810BD00000000C07F10B50C4608
:1019D0001107090F092904D00A290AD008290CD1B6
:1019E00004E011460820FFF7D1FF06E0510606D5B6
:1019F00001E0510601D50120C007214610BDD106E6
:101A000007D501010909CC084907000E0006044367
:101A100009E0410F20024907000A0143200E000699
:101A20001D22D14101430846E7E70000F0B58DB023
:101A300005920391049000F0D1FDF94DAF6829683B
:101A40000A9138460C9702F0E3FC04466E68ED6894
:101A500030460B962946099502F0DAFC214602F041
:101A60003BFD014602F010FC08902846394602F082
:101A7000CFFC04460A9D2846314602F0C9FC2146A7
:101A800002F002FC014602F0FFFB0446E54F396913
:101A90000191089802F0BCFC0646F86802902146C5
:101AA00002F0B6FC314602F017FD0790DE4902F065
:101AB000AFFCDB4EB16902F0E7FB0690B0610B981A
:101AC000014602F0A5FC06462846294602F0A0FC85
:101AD000314602F001FD06460C98014602F098FCE2
:101AE0000146304602F0F8FC06460998014602F02D
:101AF0008FFC314602F0C8FB0646CA4847692046BB
:101B0000394602F085FC05460198314602F080FC1A
:101B1000294602F0E1FC0190C34D294602F078FC11
:101B2000BF4C216902F0B0FB009020613046029961
:101B300002F06EFC04463846089902F069FC214622
:101B400002F0CAFC0290294602F062FCB44C6169C2
:101B500002F09AFB074660613F2004060798214681
:101B600002F056FC069902F08FFB0146AD4DA868C5
:101B700002F08AFB08900198214602F049FC009986
:101B800002F082FB0146286802F07EFB06460690C2
:101B90000298214602F03CFC394602F075FB0146F2
:101BA000686802F071FB014607900B9802F030FC68
:101BB00004460C98314602F02BFC0146204602F008
:101BC0008BFC04460A9F3846089D294602F020FCFB
:101BD000214602F059FB944902F01AFC0146099E85
:101BE000304602F051FB02908D49C8603846079993
:101BF00002F00EFC04463046069F394602F008FC0F
:101C0000214602F041FB04460B98294602F000FCF5
:101C10000146204602F060FC834902F0F9FB0146D0
:101C20000C9E304602F030FB01907D498860079D94
:101C30002846099902F0ECFB04460A98394602F05E
:101C4000E7FB214602F048FC04463046089902F0C2
:101C5000DFFB214602F018FB734902F0D9FB014675
:101C60000B9E304602F010FB07466D484760284641
:101C70000C9902F0CDFB04460120C0077040069984
:101C800002F0C6FB214602F027FC04460998089999
:101C900002F0BEFB0146204602F01EFC624902F043
:101CA000B7FB01460A9802F0EFFA04465C4E30603A
:101CB0003846394602F0ACFB05462046214602F084
:101CC000A7FB294602F0E0FA04460198014602F01B
:101CD0009FFB214602F0D8FA04460298014602F022
:101CE00097FB214602F0D0FA02F0A2FA04464F49CF
:101CF00002F0ACF8354684CE3668E9680A910028CF
:101D00001DD17F20C00521460992FEF7B3FD044690
:101D10000A9902F07DFB0A90E8602046314602F005
:101D200077FB0646A8602046394602F071FB07465D
:101D300068602046099902F06BFB02462860099210
:101D40001046114602F064FB08903846394602F00E
:101D50005FFB07903046314602F05AFB0C903C4640
:101D600037460A9E3046314602F052FB0B900998E6
:101D7000214602F04DFB04463846314602F048FB4E
:101D8000214602F081FA014602F07EFA0446089EDE
:101D90003046079F394602F09FFB0C9902F09CFBEE
:101DA0000B9902F071FA0146204602F0F3F803990C
:101DB0000860A868296802F02BFB04466868E96897
:101DC00002F026FB0146204602F086FB014602F0A7
:101DD0005BFA02F053F8049908602868E96802F099
:101DE00017FB04466868A96802F012FB214602F05E
:101DF0004BFA014602F048FA04463046394602F0F2
:101E000043FA0C9902F068FB0B9902F065FB01465E
:101E1000204602F0BFF8059908600DB0F0BDC0463D
:101E200000002020000120200AD7A33BBD378635C3
:101E3000811E091F00BFFCD270470000F0B584B0BE
:101E4000012422022A4B19680392914319603549F3
:101E50000D686D04FCD5457E25409E69A643741926
:101E60009C612024045D03252C40DE69AE433419B7
:101E7000DC61204C256805262660466A37681F62AB
:101E800076685E6207262E402660C4697F252D0293
:101E9000DE69AE436406640C3419DC61076845688A
:101EA00082680092C66802690192426902929A6948
:101EB000114C14403A07120B2D03ADB2AA1832434D
:101EC000009D2D072D0D1543019A1543029A1543C8
:101ED000007E2843094A0240101998611868039A45
:101EE0001043186008688005FCD504B0F0BDC046FA
:101EF00008010B40001340408D00F0FF72FF0F00FF
:101F000007498860074802689202FCD50122120442
:101F10000B6813430B600168C906FCD57047C046C7
:101F200004010B4004020B40F0B583B00B794A79F1
:101F3000002A2AD01A4A1B4C1B4F21252D01202B89
:101F400000D07035861802190092C219002B00D1FA
:101F500088251768464C27407F1917605768274027
:101F60007D1955603568804F3D40356075683D404E
:101F700075600025009C256065608F24E443156929
:101F80002540156155692540556101AA13718B796A
:101F9000537109680191114600F008F803B0F0BDD3
:101FA000381800005818000078180000F0B584B008
:101FB0006B4A82180292734BC618784BC218009273
:101FC0002A4BC4180A7901910D68294F202A0392DF
:101FD0000AD0254BC018002A17D16B1E029A5360F5
:101FE00023683B40882517E0681E029A50602068ED
:101FF0003840204B184320606068384018436060C8
:10200000012045071C4F104608E06B08029A5360F8
:1020100023683B400525ED012B43236000990368AD
:102020003B402B43036030684F4B18403060706872
:10203000184070600020086048608F20C04323690A
:102040000340236163690340636101984079039908
:102050000843BD2101401068084B0340C818801C8C
:10206000106004B0F0BDC046741800007018000085
:1020700024F93FF001040000FFFFFFCF4000FFCF35
:1020800070B5374A82184B6853603E4BC3180878C6
:10209000222857D8840001A52C59A7463B210000CF
:1020A000452100003B2100004521000045210000A2
:1020B0004521000045210000452100004521000088
:1020C0004521000045210000452100004521000078
:1020D0004521000045210000452100002921000084
:1020E0004521000029210000452100004521000074
:1020F0004521000045210000452100004521000048
:102100004521000045210000452100004521000037
:102110004521000045210000452100002921000043
:102120004521000029210000032424071568A54348
:10213000012464072C19146004E0032424071568A3
:10214000A54315600C69D460CC68064D25401C6819
:10215000054E264074191C60097A0143116070BD58
:1021600004180000777702008888FDFF10B5072368
:102170009B04194092008018024A84589C436118BD
:10218000815010BD3018000010B5029CA400001949
:1021900011431943014A815010BDC0465018000038
:1021A00092008018014A81507047C0461018000004
:1021B00010B50122120383180C789C604B78835071
:1021C0008978014A815010BD0C110000B0B5112270
:1021D000120283580124A34383508B780C881C433C
:1021E0008B882343094C1C408358094D1D402B19F3
:1021F00083508B79CC791C43097A21437E23194083
:10220000801842689A4351184160B0BD18670000B9
:10221000E798FDFF10B50122120383180C789C602B
:102220004978815010BD0000B0B5012083062E4AC8
:102230001146103909688C010DD4194220D044068A
:102240002A490D682A4B59681B68254212D100247F
:102250005B1EA14111E025490D68254C6168246889
:102260001D4203D10025631C694106E00025631E61
:10227000A94102E000245B1C61411D4C23606160A8
:1022800003214B0614681C4314600305194A1446C5
:10229000103C246825030DD41C4220D0C4041648E9
:1022A0000568164B58681B68254212D100245B1E36
:1022B000A04111E010480568104C606824681D4278
:1022C00003D10025631C684106E00025631EA84178
:1022D00002E000245B1C6041084C23606060C8047D
:1022E000116801431160B0BD48100A4080130A40D4
:1022F000B002202048300A4080330A40C802202023
:10230000F0B587B002AC0FC400F0DEFBD02630463B
:1023100000F068FB00F0F8F93B2000F063FB00F0F0
:10232000F3F900F0D1FBD127384600F05BFB00F059
:10233000EBF900F065FA01900125284600F0F2FA69
:1023400000F040FC00F0C0FB304600F04BFB00F01A
:10235000DBF93C2000F046FB00F0D6F900F0B4FBBE
:10236000384600F03FFB00F0CFF900F049FA044690
:10237000284600F0D7FA01980002041900F022FC68
:102380000298048000F0A0FB304600F02BFB00F028
:10239000BBF93D2000F026FB00F0B6F900F094FBFD
:1023A000384600F01FFB00F0AFF900F029FA029068
:1023B000284600F0B7FA00F005FC00F085FB304637
:1023C00000F010FB00F0A0F93E2000F00BFB00F045
:1023D0009BF900F079FB384600F004FB00F094F91B
:1023E00000F00EFA0446284600F09CFA029800021B
:1023F000041900F0E7FB0398048000F065FB304609
:1024000000F0F0FA00F080F93F2000F0EBFA00F065
:102410007BF900F059FB384600F0E4FA00F074F95B
:1024200000F0EEF90390284600F07CFA00F0CAFBB9
:1024300000F04AFB304600F0D5FA00F065F9402084
:1024400000F0D0FA00F060F900F03EFB384600F0F2
:10245000C9FA00F059F900F0D3F90446284600F013
:1024600061FA03980002041900F0ACFB04980480A0
:1024700000F02AFB0696304600F0B4FA00F044F96A
:10248000432000F0AFFA00F03FF900F01DFB3846A2
:1024900000F0A8FA00F038F900F0B2F904902846EC
:1024A00000F040FA00F08EFB00F00EFB304600F02A
:1024B00099FA00F029F9442000F094FA00F024F988
:1024C00000F002FB384600F08DFA00F01DF900F034
:1024D00097F90446284600F025FA049800020419EA
:1024E00000F070FB0598048000F0EEFA069C204690
:1024F00000F078FA00F008F9452000F073FA00F0D7
:1025000003F900F0E1FA384600F06CFA00F0FCF84C
:1025100000F076F90590284600F004FA00F052FB2E
:1025200000F0D2FA204600F05DFA00F0EDF8462007
:1025300000F058FA00F0E8F800F0C6FA38463E46D7
:1025400000F050FA00F0E0F800F05AF9044628468E
:1025500000F0E8F905980002041900F033FB0C982C
:10256000048000F0B1FA069C204600F03BFA00F02F
:10257000CBF8472000F036FA00F0C6F800F0A4FAD5
:10258000384600F02FFA00F0BFF800F039F907469E
:10259000284600F0C7F900F015FB00F095FA204638
:1025A00000F020FA00F0B0F8482000F01BFA00F02C
:1025B000ABF800F089FA304600F014FA00F0A4F805
:1025C00000F01EF90446284600F0ACF93802041960
:1025D00000F0F8FA0D98048007B0F0BDF0B583B0B4
:1025E0003F4801903F4800903F4D404E404A414B8C
:1025F00028463146FFF784FE0024285FFEF734FAB0
:102600007121CF05394601F003FF02903A4DE86091
:10261000305FFEF729FA394601F0FAFE06462861D6
:102620003348005FFEF720FA394601F0F1FE074615
:1026300068612B48005FFEF717FA3049FEF71AF978
:102640002F49FEF717F9A8602648005FFEF70CFA3D
:102650002A49FEF70FF92A49FEF70CF96860254868
:10266000005FFEF701FA2549FEF704F92449FEF759
:1026700001F928603046314601F0CAFE064602984C
:10268000014601F0C5FE31462E4601F0FDFD05462E
:102690003846394601F0BCFE294601F0F5FD01F04F
:1026A000C7FD0546174901F0D1FB002814D17F2052
:1026B000C40520462946FEF7DDF80546F16801F01D
:1026C000A7FEF0603169284601F0A2FE3061716911
:1026D000284601F09DFE7061B46103B0F0BDC046B4
:1026E000900020208E0020208000202082002020CA
:1026F000840020208C0020200001202000000343C3
:10270000E12E6542BD378635F0B581B0EC4A8120B7
:102710001060EC4D01262E602E6410602E602E6439
:102720002E6050242046FFF783FB2046FFF780FBF6
:102730002046FFF77DFB2046FFF77AFB2046FFF798
:1027400077FB2046FFF774FB2046FFF771FB20461E
:10275000FFF76EFB02272F602046FFF769FB20463C
:10276000FFF766FB2046FFF763FB2046FFF760FBA1
:102770002046FFF75DFB2046FFF75AFB2046FFF798
:1027800057FB2046FFF754FB6448CD4908600860BA
:10279000634805682046FFF74BFB2046FFF748FBE0
:1027A0002046FFF745FB2046FFF742FB2046FFF798
:1027B0003FFB2046FFF73CFB2046FFF739FB204656
:1027C000FFF736FBBF4807612046FFF731FB204685
:1027D000FFF72EFB2046FFF72BFB2046FFF728FBD9
:1027E0002046FFF725FB2046FFF722FB2046FFF798
:1027F0001FFB2046FFF71CFB3540284601B0F0BD0B
:10280000F0B583B0ED4981200860ED4A01231360E3
:10281000136408601360136401931360502420460E
:10282000FFF706FB2046FFF703FB2046FFF700FB00
:102830002046FFF7FDFA2046FFF7FAFA2046FFF799
:10284000F7FA2046FFF7F4FA2046FFF7F1FA0025E1
:102850002F46DA48314E066002210291D8480160C5
:1028600050242046FFF7E4FA2046FFF7E1FA20461D
:10287000FFF7DEFA2046FFF7DBFA2046FFF7D8FA2B
:102880002046FFF7D5FA2046FFF7D2FA2046FFF799
:10289000CFFACA480660224806682046FFF7C8FA01
:1028A0002046FFF7C5FA2046FFF7C2FA2046FFF799
:1028B000BFFA2046FFF7BCFA2046FFF7B9FA2046D8
:1028C000FFF7B6FA2046FFF7B3FA0298EE4908611F
:1028D0002046FFF7ADFA2046FFF7AAFA2046FFF799
:1028E000A7FA2046FFF7A4FA2046FFF7A1FA2046F0
:1028F000FFF79EFA2046FFF79BFA2046FFF798FA6B
:102900008020E84001990E40714201400F436D1C48
:10291000082D9ED1F8B203B0F0BDC046810006007C
:1029200080130A4070B5D74A81231360D64D012128
:1029300029602964136029602964002801D0284691
:1029400001E028461030016050242046FFF770FA5D
:102950002046FFF76DFA2046FFF76AFA2046FFF798
:1029600067FA2046FFF764FA2046FFF761FA20462F
:10297000FFF75EFA2046FFF75BFA02262E6020463C
:10298000FFF756FA2046FFF753FA2046FFF750FAB2
:102990002046FFF74DFA2046FFF74AFA2046FFF798
:1029A00047FA2046FFF744FA2046FFF741FA2E6126
:1029B0002046FFF73DFA2046FFF73AFA2046FFF798
:1029C00037FA2046FFF734FA2046FFF731FA20465F
:1029D000FFF72EFA2046FFF72BFA2046FFF728FADA
:1029E00070BDC046F0B583B00290A6488121019128
:1029F0000160A54C0122226022640027009251E070
:102A0000226050252846FFF713FA2846FFF710FAF0
:102A10002846FFF70DFA2846FFF70AFA2846FFF77F
:102A200007FA2846FFF704FA2846FFF701FA284676
:102A3000FFF7FEF90226944C26602846FFF7F8F9C6
:102A40002846FFF7F5F92846FFF7F2F92846FFF781
:102A5000EFF92846FFF7ECF92846FFF7E9F9284691
:102A6000FFF7E6F92846FFF7E3F926612846FFF766
:102A7000DFF92846FFF7DCF92846FFF7D9F92846A1
:102A8000FFF7D6F92846FFF7D3F92846FFF7D0F924
:102A90002846FFF7CDF92846FFF7CAF9009A7F1CB0
:102AA000082F0AD0774801990160226022640298B9
:102AB000B8400006A4D41034A2E703B0F0BDC0466D
:102AC0000480424090120A40F0B581B06D488127E1
:102AD00007606D4D01262E602E6407602E602E6407
:102AE0002E6050242046FFF7A3F92046FFF7A0F9F7
:102AF0002046FFF79DF92046FFF79AF92046FFF799
:102B000097F92046FFF794F92046FFF791F9204600
:102B1000FFF78EF90220009028602046FFF788F921
:102B20002046FFF785F92046FFF782F92046FFF798
:102B30007FF92046FFF77CF92046FFF779F9204618
:102B4000FFF776F92046FFF773F94E4807602E60CD
:102B50002E642E612046FFF76BF92046FFF768F9D7
:102B60002046FFF765F92046FFF762F92046FFF798
:102B70005FF92046FFF75CF92046FFF759F9204638
:102B8000FFF756F9009828612046FFF751F92046D3
:102B9000FFF74EF92046FFF74BF92046FFF748F9BB
:102BA0002046FFF745F92046FFF742F92046FFF798
:102BB0003FF92046FFF73CF901B0F0BD04804240E8
:102BC00090120A40F0B581B02E4881270760C14EAF
:102BD0000125356035640760356035643561502402
:102BE0002046FFF725F92046FFF722F92046FFF798
:102BF0001FF92046FFF71CF92046FFF719F9204678
:102C0000FFF716F92046FFF713F92046FFF710F9F2
:102C1000022030602046FFF70BF92046FFF708F945
:102C20002046FFF705F92046FFF702F92046FFF797
:102C3000FFF82046FFF7FCF82046FFF7F9F820469A
:102C4000FFF7F6F80F4807603560356435602046B9
:102C5000FFF7EEF82046FFF7EBF82046FFF7E8F81D
:102C60002046FFF7E5F82046FFF7E2F82046FFF799
:102C7000DFF82046FFF7DCF82046FFF7D9F801B06F
:102C8000F0BDC0460480424090120A40B0B5B0206A
:102C900000F02CFA102000F029FA0025284600F058
:102CA00025FA0024204600F051FA681C45B2002D98
:102CB000F7D5B12000F01AFA102000F017FA2046DC
:102CC00000F014FA0025284600F040FA601C44B2D7
:102CD000002CF7D5B22000F009FA102000F006FA17
:102CE000284600F003FA0024204600F02FFA681C62
:102CF00045B2002DF7D5B32000F0F8F9102000F010
:102D0000F5F9204600F0F2F90025284600F01EFAF9
:102D1000601C44B2002CF7D5B42000F0E7F9102075
:102D200000F0E4F9284600F0E1F90024204600F024
:102D30000DFA681C45B2002DF7D5B52000F0D6F984
:102D4000102000F0D3F9204600F0D0F900252846E5
:102D500000F0FCF9601C44B2002CF7D5B62000F05E
:102D6000C5F9102000F0C2F9284600F0BFF9002490
:102D7000204600F0EBF9681C45B2002DF7D5B720CE
:102D800000F0B4F9102000F0B1F9204600F0AEF9DF
:102D9000002000F0DBF9601C44B2002CF8D5B0BD77
:102DA000F0B581B0009040B2E74D2E4610360028B5
:102DB000304600DA284601240460204600F0FEFD7B
:102DC00002272F60204600F0F9FD2F61204600F019
:102DD000F5FD00984006304600D5284604602046A0
:102DE00000F0ECFD2F60204600F0E8FD2F6120464A
:102DF00000F0E4FD00988006304600D528460460C7
:102E0000204600F0DBFD2F60204600F0D7FD2F614B
:102E1000204600F0D3FD0098C006304600D5284675
:102E20000460204600F0CAFD2F60204600F0C6FD79
:102E30002F61204600F0C2FD00980007304600D503
:102E400028460460204600F0B9FD2F60204600F0BF
:102E5000B5FD2F61204600F0B1FD009840073046D7
:102E600000D528460460204600F0A8FD2F602046CB
:102E700000F0A4FD2F61204600F0A0FD009880071F
:102E8000304600D528460460204600F097FD2F60AC
:102E9000204600F093FD2F61204600F08FFD009842
:102EA000C00700D02E463460204600F087FD2F601A
:102EB000204600F083FD2F61204600F07FFD2F604B
:102EC000204600F07BFD2F61204600F077FD01B029
:102ED000F0BDC04690120A4080B5AE2000F006F961
:102EE000D52000F003F9802000F000F9A82000F0C0
:102EF000FDF83F2000F0FAF8D32000F0F7F80020AA
:102F000000F0F4F8402000F0F1F8A12000F0EEF815
:102F1000C82000F0EBF8DA2000F0E8F8122000F00A
:102F2000E5F8812000F0E2F8CF2000F0DFF8D920AA
:102F300000F0DCF8F12000F0D9F8DB2000F0D6F842
:102F4000302000F0D3F8A42000F0D0F8A62000F044
:102F5000CDF88D2000F0CAF8142000F0C7F8AF209B
:102F600000F0C4F8FFF792FE80BD0000F0B583B01A
:102F700016460C46400002907E30B0210191084375
:102F8000C0B200F0B3F8E700083FF8B2040910340B
:102F9000204600F0ABF808253D40284600F0A6F892
:102FA000300121494618214FF05D00F0CFF8F619A5
:102FB000707800F0CBF8B07800F0C8F8F07800F046
:102FC000C5F8307900F0C2F8707900F0BFF8B07938
:102FD00000F0BCF8F07900F0B9F80298401E0199B1
:102FE0000843C0B200F082F8204600F07FF828467F
:102FF00000F07CF8307A00F0A9F8707A00F0A6F8BA
:10300000B07A00F0A3F8F07A00F0A0F8307B00F07E
:103010009DF8707B00F09AF8B07B00F097F8F07B99
:1030200000F094F803B0F0BD8C46000000FEFFFFF6
:10303000F0B587B003AC0FC4002B3CD00698451EFA
:10304000801E019000261D4F029513E00121049877
:103050003418059800F088FD0A21FDF753F9302255
:103060000A43E1B20398FFF781FF6D1E761C0698B4
:10307000864220D002988642E8D003200199891B1D
:10308000032901D2012105E02A4682430121794327
:10309000121FFCD1F243069BD2180240D7D0012A5E
:1030A00001D10A2005E0022A02D07D20C00000E004
:1030B00064204143CBE707B0F0BDC04610270000B5
:1030C000F0B581B00646107800280DD014460D46A4
:1030D00000277919C9B2C2B23046FFF747FF7F1CFB
:1030E000F8B2205C0028F4D101B0F0BDF0B581B099
:1030F00005462D4E01243460204600F05FFC022777
:103100003760204600F05AFC3461204600F056FC3F
:103110003761204600F052FC7820FFF741FE002086
:10312000FFF73EFE2846FFF73BFE3461204600F0E5
:1031300045FC3760204600F041FC3460204600F03A
:103140003DFC01B0F0BDC04690120A40F0B581B020
:103150000546154E01243460204600F02FFC02275E
:103160003760204600F02AFC3461204600F026FC3F
:103170003761204600F022FC7820FFF711FE402046
:10318000FFF70EFE2846FFF70BFE3461204600F0E5
:1031900015FC3760204600F011FC3460204600F03A
:1031A0000DFC01B0F0BDC04690120A40B0B52449F4
:1031B00088228A63234804230360CA6308220260CA
:1031C00082220A65204A531C4B65204B204C1C6010
:1031D00081240C604C609C649C661C65DC648A6580
:1031E000CA648A644A635A655A66DA629A631A61E3
:1031F0005A611849184A0A600A6305218A04174B64
:103200001C6814431C6003225306154C256A1D4399
:10321000256225681D4325600346303B01242406B2
:103220001C60046088010F490B6803430B60D004E5
:103230000D490A6A02430A620A6802430A60B0BD85
:1032400004804240D0320A4081000400888042401D
:1032500081000600A0120A4003008009A0130A4062
:1032600028100A40A0330A4028300A40F0B581B047
:103270001A4C1B492046FEF79BFF1A492046FEF7D1
:1032800053FE00250095204629462A462B46FEF788
:103290007BFF204629462A46FEF768FFFF26F436C4
:1032A000204631462A46FEF77BFF0127009720463D
:1032B00029462A462B46FEF767FF204629463A460E
:1032C000FEF754FF711C20463A46FEF769FF064898
:1032D00087600321016001B0F0BDC0460020864038
:1032E0007C4C0000804C00000031864070B51948CD
:1032F000002404600F200002174E3168814301252D
:103300006802081830600320C043311F0A68024079
:103310000A607068A8437060280271688143716018
:103320000E48FEF78BFD30681021014320208143B9
:10333000316028033168014331602046FEF7E0FD2B
:10334000FF20000206490A688243A803101808609B
:1033500070BDC04608030B4004010B40884C0000C0
:1033600000E400E00548042101604F214160002194
:103370008160016805220A430260704710E000E0A6
:1033800010B5084C08492046FEF712FF07492046B1
:10339000FEF776FE064801680122114301600548E8
:1033A000026010BD00008640B04C0000B44C00002C
:1033B000281086400811864010B5154C1549204646
:1033C000FEF728FF14492046FEF700FF0320C10343
:1033D000124802688A4302600169114A0A40911C3E
:1033E000016141690B220A4334218A4342614168E9
:1033F0000122114043689343591841609102094BDF
:103400001C680C431C6001681143016010BDC0467C
:1034100000801040C84C0000CA4C000000911040D1
:103420000000FFFF2890104080B500F017F8FFF76C
:10343000BDFEFFF75BFFFFF719FFFFF7A1FFFFF7E7
:10344000BBFFFFF78FFFB820024900220A54024950
:103450000A5480BDE401202028012020B0B50A488C
:103460000A4941600A4A51600A4B59600A4C61603E
:103470000A4D69600A490160116019602160296084
:103480001020FEF7D5FCB0BD00080A40030000B1D3
:1034900000280A4000288640000886400088104026
:1034A00001000026F0B585B0BA48016840270F40FA
:1034B00079427941B848017001204302B74C226833
:1034C0001A4053425341B6490B702368DB03DB0FAC
:1034D000B4490B700602256835406E426E41B24910
:1034E0000E7026688024344066426641AF490E70F3
:1034F000AA4909688903C90FAD4E3170E4094440F7
:103500002D0A4540009501940291B9094140520AA3
:1035100003904240A748FCF765FEA248007804905B
:10352000002803D0A4480168491C01609C48007829
:10353000002803D0A0490A68521C0A6096490B78FB
:10354000002B03D09C490A68521C0A6096490D78EA
:10355000002D03D098490A68521C0A6093490E78DE
:10356000002E03D094490A68521C0A6090490F78D3
:10357000914C2168C91901290A4600D8039A002FE5
:1035800001D1002900D12260032159434000049B4E
:1035900018430818A9004018052171434018062156
:1035A00079434018114600F001FB0446FDF75CFA30
:1035B000824D2860002C02D08149086002E08048DA
:1035C00000682860FDF72CF902467EA00B46FCF748
:1035D00009FE29688048039100F07EFF04467F4879
:1035E00004600120C107204688437D4900F018FC93
:1035F0007C4D2E68002815D12046314600F044FE4F
:103600000746794E314600F02EFC002800D13E4698
:103610002E60764F3046394600F018FC002801D164
:103620002F603E4672480768046072480168304661
:1036300000F0EEFE064670480068214600F0E8FE05
:10364000314600F021FE06462046394600F044FF90
:1036500001466A48006800F0DBFE314600F014FEC7
:103660000746674E314600F0FEFB002800D13E467B
:1036700000243846214600F0F6FB002800D13E46E3
:10368000604F3046394600F0D6FB002800D137465F
:1036900030460494214600F0CEFB002800D1374686
:1036A000594C27600398FDF7BBF8024657A00B461C
:1036B000FCF798FD2068FDF7B3F8024658A00B46CA
:1036C000FCF790FD26685B48314600F005FF054693
:1036D000594C206059480560384807683E493846CB
:1036E00000F0B4FB002804D15249304600F0CCFD74
:1036F00020603949384600F093FB002807D1256047
:103700004C49304600F0C0FD05464C480560324942
:10371000384600F07AFB00281CD00021304600F02B
:103720007FFB002807D14649304600F09CFB00286B
:1037300001D043480CE00021304600F087FB002810
:1037400008D14049304600F081FB002802D13D48B5
:103750002D4908602846FDF73DF900F0B7F92068CB
:10376000FDF738F900F0D6F92068FDF759F8024660
:1037700035A00B46FCF736FD30480068FDF750F8E1
:10378000024635A00B46FCF72DFD0B48049901605D
:1037900005B0F0BD80330A40AC02202080130A40FF
:1037A000AD022020AE0220207403202075032020CB
:1037B00076032020D44C0000FC0020201C01202097
:1037C000A80220206465746563745F76616C75651A
:1037D00030203D2025660A000000404024012020C2
:1037E0000000C842A0022020000048C20000484259
:1037F000200120209C002020A000202098002020D4
:103800000000F0C20000F042E00220206465746510
:1038100063745F76616C756531203D2025660A0012
:103820006F75747075745F76616C203D2025660A33
:103830000000000000009643EC022020E802202057
:103840000000C8C10000C84170776D5F7365745F88
:1038500052203D2025660A0070776D5F7365745FA6
:103860004C203D2025660A00F0B581B01D48006857
:10387000C0B2012833D11C4F7868386800217960C4
:103880003960B860C20F3A73184D6A682C68696075
:103890002960AC60E10F2973FCF793FE144A154EC2
:1038A0003346FCF799FEFCF72DFE38612046FCF705
:1038B00088FE0F4A3346FCF78FFEFCF723FE286193
:1038C000FCF7AEFF02460CA00B46FCF78BFC3869F8
:1038D000FCF7A6FF02460CA00B46FCF783FC01B0E8
:1038E000F0BDC04620108640B0022020C802202033
:1038F0001904560E2DB28D3F456E636F646572528A
:10390000203D2025660A0000456E636F6465724C99
:10391000203D2025660A000010B512480068C0B29C
:103920000B281ED13048C1690F4A13887E2B13D84B
:1039300013885C1C14800D4AD1540268D20708D049
:103940000268D20705D00268D20702D00268D20707
:10395000F3D1C9B2816101E0002010800448012147
:10396000017010BD2090104072032020F002202032
:10397000700320207047000080B5FFF755FD01203F
:10398000C003044908600449086004A0FCF7A4FCD3
:1039900080BDC04680E200E000E100E0426F61725D
:1039A0006420496E6974205B5B202A2A204C434BBB
:1039B0004642202A2A205D5D0D00000080B550217E
:1039C0004843FEF735FA80BD07490A68D20708D098
:1039D0000A68D20705D00A68D20702D00A68D2075F
:1039E000F3D1C2B28A6170470891104082B0FFF7EC
:1039F0001BFDFFF7C1FF2248002101600124A00741
:103A0000204908602048214901602148016821437C
:103A10000160FFF761FA1FA220462146FFF750FB25
:103A20001F4E204F18E03D60032101200346FFF7A1
:103A3000FFFA1E4800901C4801901D481D491E4A6F
:103A40001E4BFEF75DFCFEF7C9FD1D481D491E4AD1
:103A5000FDF7ECFFFFF726FD20030F490D68054039
:103A60000E480560326838680028DCD1002DDAD0B5
:103A7000501C0621FCF754FC0A463160D3E7C046CF
:103A8000A00020209C00202098002020CDCCCC3D00
:103A9000043886404E3D000080130A40F800202084
:103AA0007C032020A40220209600202094002020C7
:103AB00086002020880020208A00202092002020DC
:103AC000E4022020780320208003202010B501226A
:103AD0001106D206204B0E4C002808D41A60216132
:103AE0007D2109014A1E904206D8091A0BE0216087
:103AF0001A611C49884203D81948FCF7EDFB10BD38
:103B00007D210901411815480022FEF749FB10BD2F
:103B100090320A4080B50122D10513060E4A0028D2
:103B200008D4136011617D2109014A1E904206D814
:103B3000091A0BE0116013610A49884203D808484A
:103B4000FCF7CAFB80BD7D21090141180348012211
:103B5000FEF726FB80BDC04690120A40002086403A
:103B6000144D000030F8FFFF43088B421AD30022A7
:103B700003098B4279D3030A8B425ED3030B8B423A
:103B800042D3030C8B4227D30902FF2212BA030C43
:103B90008B4202D31212090203D0030B8B4233D3A0
:103BA0001AE0D3E0411A8041401C704703460B43A2
:103BB00071D443088B42F5D3002203098B4254D3BE
:103BC000030A8B4239D3030B8B421DD3030C8B4268
:103BD00002D394466EE0090AC30B8B4201D3CB0398
:103BE000C01A5241830B8B4201D38B03C01A52413E
:103BF000430B8B4201D34B03C01A5241030B8B4240
:103C000001D30B03C01A5241C30A8B4201D3CB022A
:103C1000C01A5241830A8B4201D38B02C01A52410F
:103C2000430A8B4201D34B02C01A5241030A8B4212
:103C300001D30B02C01A5241CDD2C3098B4201D32A
:103C4000CB01C01A524183098B4201D38B01C01AA8
:103C5000524143098B4201D34B01C01A524103091F
:103C60008B4201D30B01C01A5241C3088B4201D3CE
:103C7000CB00C01A524183088B4201D38B00C01A7B
:103C8000524143088B4201D34B00C01A5241411AA2
:103C9000524110007047CA0F00D04942031000D3B0
:103CA0004042534000229C4603098B422DD3030A15
:103CB0008B4212D38901FC2212BA030A8B420CD325
:103CC000890192118B4208D3890192118B4204D34E
:103CD000890137D0921100E08909C3098B4201D3D1
:103CE000CB01C01A524183098B4201D38B01C01A08
:103CF000524143098B4201D34B01C01A524103097F
:103D00008B4201D30B01C01A5241C3088B4201D32D
:103D1000CB00C01A524183088B4201D38B00C01ADA
:103D20005241D9D243088B4201D34B00C01A5241B1
:103D3000411A00D201465241104663465B1000D33F
:103D40004042704763465B1000D3404201B50021FA
:103D5000004201D0C9430846C046C04602BDF8B57E
:103D6000040C8BB2264682B25E43104658430D0CBB
:103D7000370C360400218019164679416E43370C02
:103D800036048019264679416E438919F8BD000032
:103D90004900CA020243100000D004204A0D01D09D
:103DA00001221043044A490D914201D102210843E6
:103DB000012800D105207047FF07000041000802DC
:103DC00000D004200A0E01D001221043090EFF2961
:103DD00001D102210843012800D10520704710B508
:103DE0000121FDF7E1F810BD10B500F04DFA10BD4E
:103DF00010B500210846FCF73DFD10BD5E2110B551
:103E0000C9430807FDF7D0F810BD10B500F082FADD
:103E1000EFF30080400001D5012010BD002010BD4F
:103E200010B500F0A1FAEFF30080800001D5012069
:103E300010BD002010BD10B500F096FAEFF3008021
:103E40004000800F012800D0002010BD10B500F008
:103E5000B5FAEFF300804000800F012801D0012067
:103E600010BD002010BD10B500F0A8FAEFF30080DF
:103E7000800001D4012010BD002010BDF8B504461B
:103E80004721400049060D2241181206914253D89D
:103E90003F21490688421BD960007F214008C9059F
:103EA00000F00EFB0021C943FDF77EF8074600F045
:103EB000BFF9002C04DA2F4D2D4EA907484001E030
:103EC0002D4E2E4D0321890700F0A2FA044606E08C
:103ED000002621463546084600F09AFA074628494A
:103EE000384600F095FA274900F0CEF9394600F03F
:103EF0008FFA254900F0C8F9394600F089FA2349BC
:103F000000F0C2F9394600F083FA214900F0BCF90B
:103F100000903946204600F07BFA009900F078FACC
:103F200007462946204600F0AFF9394600F0ACF9C3
:103F3000314600F0A9F9F8BD39214906884208D276
:103F40002046FFF73BFF042801D1FFF757FF20462B
:103F5000F8BDFF210906884203D92046FFF73FFF3D
:103F6000F8BD0120FCF790FDFFF742FFF8BD00000F
:103F70000000C9BF22AAFDB90000C93F22AAFD392D
:103F800024FE1C3DC78AD83C1E67383D1B93993DD3
:103F9000AFAA2A3EF0B50C4601461D224B00D206C0
:103FA0009F18E52605463606620087B02046B742D0
:103FB0007BD21D27FF06D719B74276D24F004300A8
:103FC0003E0E1A0EB21A1B2A07DD002902DA8548B6
:103FD00007B0F0BD844807B0F0BD1A26F2422FDAD0
:103FE000002807DA002902DA804807B0F0BD8048CF
:103FF00007B0F0BD21462846FCF73CFC0646FFF71B
:10400000DDFE042801D1FFF7F9FE2846FFF7D6FEB2
:1040100005462046FFF7D2FE04463046FFF7CEFEA7
:10402000042D01D0052D08D1042C01D0052C04D17C
:10403000002802D10220FCF727FD304607B0F0BD72
:104040009F4211D9002902DA6A4F6B4E01E06B4F93
:104050006B4E23462C461D4601220346D2070846D6
:104060005440504019460BE0002807DA002902DAD4
:10407000644F654E04E0654F654E01E0002637460B
:10408000421A012352001B069A422FD2484061492E
:104090000CD5BF2000060290384600F01DFA0746F6
:1040A0005D49304600F018FA0BE053E03F2000066F
:1040B0000290384600F0E8F807465749304600F0CD
:1040C000E3F806462846029900F0A2F9214600F0DE
:1040D000DBF800902146029800F09AF9294600F09A
:1040E000EFF90099FCF7C6FB044604E02146284698
:1040F000FCF7C0FB0446014600F08AF947490090EE
:1041000000F086F9464900F0BFF8009900F080F908
:10411000444900F0B9F8009900F07AF9424900F0FA
:10412000B3F8009900F074F9404900F0ADF8054685
:104130002046009900F06CF9294600F069F93146F3
:1041400000F0A2F8214600F09FF8394600F09CF8F4
:1041500007B0F0BDFF263606B34201D8B24205D9FA
:1041600001462846FFF740FE07B0F0BD2F46074343
:104170007F000AD0B3420CD1B2420AD10122920789
:10418000904391430D46044618E7FF22D2051043A1
:10419000F9E7B3420CD047000AD0B2420ED04E002D
:1041A0000CD05340F0D4002A0EDB9F26F6050DE01C
:1041B000FF22D2051143E00FC007FFE6C90FC90770
:1041C000FF22D2051043F9E65F26F6053146284660
:1041D00000F01EF905463146204600F019F9044664
:1041E0002946EBE6DB0FC9BFDB0FC93FDB0F49C038
:1041F000DB0F49400000C9BF22AAFDB90000C93F3A
:1042000022AAFD39000049C022AA7DBA0000494017
:1042100022AA7D3A0060ED3EC30ACE372DAD65BDC2
:104220008FB8D53D0FB511BE61C84C3EA8AAAABE35
:1042300070B50546FCF7DAFE41000446FF20490848
:10424000C005411AC90F07D069004908401AC00FBC
:1042500002D10120FCF718FC204670BD10B50029E2
:104260000AD00878002807D005487844FDF736FBC7
:10427000002801D0002010BD0248784410BD000085
:10428000DE0A0000D60A000070B50125ED07040023
:104290004C4020D4441A01D2001B0919C60D4B0012
:1042A000F2B2FF2A29D01B0E2CD000020C022843A8
:1042B0002C43D31ADC40051910D2280A02D3401C23
:1042C0006D0611D0761EF6058019FF2A00DA70BD42
:1042D000C00DC00570BD694000F004F90120054320
:1042E000C541521C761CE8E764089C40C901614046
:1042F0008900E7D10124A043E4E71B0E440200D06B
:10430000034870BD002AFCD1C00FC00770BD00BFBC
:104310000000C07F0123DB0502000A430DD4DA420E
:1043200003D49A4207D488427047D84214D4D94261
:1043300012D48842704780427047DA4203D59A42CD
:10434000F9D5814270475B004200DA4204D24A004C
:10435000DA4201D28142704710B5024AFDF760FA95
:1043600010BD00BF090012040123DB0502000A434F
:104370000DD4DA4203D49A4207D488427047D84217
:1043800014D4D94212D48842704780427047DA422E
:1043900003D59A42F9D5814270475B004200DA4268
:1043A00004D24A00DA4201D28142704710B5024A73
:1043B000FDF736FA10BD00BF090013040123DB0529
:1043C00002000A430DD4DA4203D49A4207D4884249
:1043D0007047D84214D4D94212D4884270478042E0
:1043E0007047DA4203D59A42F9D5814270475B00A3
:1043F0004200DA4204D24A00DA4201D281427047D6
:1044000010B5024AFDF70CFA10BD00BF09001604F2
:1044100070B5420064414B005C41120E39D01B0E56
:1044200038D0FF2A3CD0FF2B3AD0D2187F3A400236
:104430004902400A490A4518ED0106004E43000AA8
:10444000090A48430104731A4019190C4318990FBB
:1044500004D05B08012149075B1A521CD80904D318
:10446000401CF50301D19D0607D0FF2A08D2D505CF
:1044700006D0E4072043401970BD0125A843F4E7A6
:10448000002A01DCE00770BD2402FF202043C005A4
:1044900070BD1B0EFF2A03D0FF2B01D0E00770BDBB
:1044A000FF2636064500B54206D84D00B54203D872
:1044B000D218FF2A00D0E7E7004870BD0000C07F97
:1044C00070B50125ED07684004004C4002D56940F5
:1044D00000F008F8FFF7DEFE70B50125ED070400D7
:1044E0004C4022D4441A02D26C40001B0919C60D5C
:1044F0004B00F2B2FF2A4BD01B0E50D000020C0230
:10450000A8432C43D31ADC40051B05D5AD0019D3B5
:104510006D08761E521E37D0F605280A01D2801982
:1045200070BD70416D0603D070BD6940FFF7B2FEEB
:104530009C4009026140490001D0401E70BD012429
:10454000A04370BD6D081DD001202B0C01D12D049E
:1045500010302B0E01D12D0208302B0F01D12D016F
:10456000001DAB0F01D1AD00801CEB0F01D16D0020
:10457000401C361A121A6D00680AF5054019012A06
:1045800002DB70BD002070BDC036300AC00770BDB0
:104590001B0E440201D1FF2B00D1024870BD002A3E
:1045A000F0D070BD0000C07F03B402487844844658
:1045B00003BC604731C7FFFF81828384858687887B
:1045C000898B8C8D8E8F919293959697999A9C9DBD
:1045D0009FA0A2A3A5A7A8AAACAEB0B2B3B5B7B925
:1045E000BCBEC0C2C5C7C9CCCED1D4D7D9DCDFE2EE
:1045F000E6E9ECF0F3F7FAFE02400000000000A04C
:104600000000000005400000000000C8000000009D
:104610000C4000000000409C000000001940000019
:104620000020BCBE0000000034400000BFC91B8E4B
:1046300000000004B5400000504BCFD06607E2CF29
:10464000010000006C4100003E8251AADFEEA73459
:1046500001000000D9420000DCB5A0E23A301F970B
:10466000FFFFFFFFB4450000FD25A0C8E9A3C14F2F
:10467000FFFFFFFFFF3F0000000000800000000080
:10468000FF3F00000000008000000000000000006C
:10469000000000000000000000000000000000F822
:1046A00000000000000000333000000000100C0685
:1046B000100C0600000000000000000040C0784020
:1046C000C0784000043F04043F040400007088FCEC
:1046D00008300000001820FF211E0000F008F00044
:1046E000E018000000211C031E211E0000F00888B5
:1046F000700000001E2123241927211010160E001F
:10470000000000000000000000000000000000E0C9
:1047100018040200000000071820400000020418DE
:10472000E00000000040201807000000404080F03A
:10473000804040000202010F01020200000000F070
:10474000000000000101011F010101000000000044
:104750000000000080B070000000000000000000B9
:104760000000000000010101010101010000000042
:1047700000000000003030000000000000000000D9
:1047800080601804006018060100000000E01008B6
:104790000810E000000F102020100F00001010F88B
:1047A000000000000020203F2020000000700808CA
:1047B000088870000030282422213000003008884A
:1047C000884830000018202020110E000000C02072
:1047D00010F8000000070424243F240000F8088893
:1047E000880808000019212020110E0000E0108820
:1047F00088180000000F112020110E000038080852
:10480000C83808000000003F000000000070880861
:1048100008887000001C222121221C0000E01008E2
:104820000810E0000000312222110F00000000C03B
:10483000C0000000000000303000000000000080D8
:1048400000000000000080600000000000008040C8
:1048500020100800000102040810200040404040E1
:104860004040400004040404040404000008102034
:104870004080000000201008040201000070480879
:104880000808F0000000003036010000C030C828E1
:10489000E810E0000718272423140B000000C0389C
:1048A000E0000000203C23020227382008F8888816
:1048B00088700000203F202020110E00C030080822
:1048C00008083800071820202010080008F80808F9
:1048D0000810E000203F202020100F0008F88888F2
:1048E000E8081000203F20202320180008F88888BE
:1048F000E8081000203F200003000000C030080836
:104900000838000007182020221E020008F80800BE
:104910000008F808203F210101213F20000808F885
:10492000080800000020203F2020000000000808A8
:10493000F8080800C08080807F00000008F888C068
:1049400028180800203F20012638200008F8080019
:1049500000000000203F20202020300008F8F80050
:10496000F8F80800203F003F003F200008F830C062
:104970000008F808203F200007183F00E010080852
:104980000810E0000F10202020100F0008F8080881
:104990000808F000203F210101010000E010080894
:1049A0000810E0000F18242438504F0008F88888B9
:1049B00088887000203F2000030C30200070880899
:1049C000080838000038202121221C00180808F8A7
:1049D000080818000000203F2000000008F8080028
:1049E0000008F808001F202020201F0008788800F9
:1049F00000C83808000007380E010000F80800F869
:104A00000008F800033C0700073C03000818688012
:104A10008068180820302C03032C30200838C80088
:104A2000C83808000000203F2000000010080808D7
:104A3000C83808002038262120201800000000FE79
:104A4000020202000000007F40404000000C30C025
:104A500000000000000000010638C0000002020251
:104A6000FE000000004040407F0000000000040203
:104A7000020204000000000000000000000000002E
:104A8000000000008080808080808080000202041E
:104A90000000000000000000000000000000808016
:104AA000808000000019242222223F2008F8008084
:104AB00080000000003F112020110E000000008047
:104AC00080800000000E11202020110000000080D6
:104AD0008088F800000E112020103F200000808008
:104AE00080800000001F222222221300008080F01C
:104AF000888888180020203F202000000000808047
:104B000080808000006B94949493600008F800808B
:104B100080800000203F210000203F2000809898E6
:104B2000000000000020203F202000000000008046
:104B30009898000000C08080807F000008F8000086
:104B400080808000203F24022D302000000808F8DB
:104B5000000000000020203F202000008080808096
:104B600080808000203F20003F20003F8080008028
:104B700080800000203F210000203F200000808036
:104B800080800000001F202020201F0080800080E7
:104B90008000000080FFA12020110E000000008096
:104BA00080808000000E112020A0FF808080800087
:104BB0008080800020203F212000010000008080B4
:104BC000808080000033242424241900008080E0A9
:104BD000808000000000001F202000008080000076
:104BE00000808000001F202020103F208080800057
:104BF0000080808000010E30080601008080008067
:104C0000008080800F300C030C300F00008080008B
:104C1000808080000020312E0E31200080808000B6
:104C20000080808080818E70180601000080808066
:104C3000808080000021302C222130000000000004
:104C4000807C020200000000003F404000000000A5
:104C5000FF00000000000000FF0000000002027CD6
:104C6000800000000040403F0000000000060101FD
:104C700002020404000000000000000008001F0001
:104C8000D00700000000000001000000000000004C
:104C90000000000000000000000000001000000004
:104CA0000000000009000000010000002C00C441C9
:104CB00008004F00220000000F2700000100000044
:104CC00000000000000000000400000018000000C8
:104CD000003000006C6566745F313D25642C6C65A6
:104CE00066745F323D25642C6C6566745F333D25C8
:104CF000642C72696768745F313D25642C72696742
:104D000068745F323D25642C72696768745F333D57
:104D100025640A0070776D2070617261206572727F
:104D20002121210D00000000684D0000000020201E
:104D30002000000020010000884D000020002020FD
:104D400068090000480100001C000000430000004A
:104D5000F8FFFFFF0C0000000E0000000F00000035
:104D60002E000000000000000000803F0000000056
:104D70000000000000000000000000000000000033
:084D800000000000000000002B
:04000005000000C136
:00000001FF
