:020000040000FA
:1000000048092020A5010000A9010000AB01000063
:1000100000000000000000000000000000000000E0
:10002000000000000000000000000000AD01000022
:100030000000000000000000AF010000B10100005E
:10004000B3010000B3010000B3010000B3010000E0
:10005000B3010000B3010000B3010000B3010000D0
:1000600000000000B3010000B30100000000000028
:1000700000000000B3010000B30100007929000076
:10008000B3010000B3010000B3010000B3010000A0
:10009000B3010000B30100000000000000000000F8
:1000A000B3010000B30100000000000000000000E8
:1000B000B301000000000000B3010000B301000024
:1000C00000F002F800F05FF812A030C808382418D9
:1000D0002D18AC4201D100F056F80FCCA246AB4629
:1000E0000CA730CF2D1B083F3F197C427F1E544484
:1000F0002D090426F441641EAC4201D300F043F8FC
:100100000126334200D0FB1A3343984754465D46DC
:10011000DFE70000245D0000445D000000000000F7
:10012000103A02D378C878C1FAD8520701D330C840
:1001300030C101D504680C60704700000000000069
:100140007047000000000000002300240025002666
:10015000103A01D378C1FBD8520700D330C100D583
:100160000B60704710B5642902D100F069F810BD2A
:10017000782902D100F09AF810BD002010BD1FB5FB
:100180001FBD10B510BD01F0AFF91146FFF7F7FF25
:1001900003F046F801F0C7F903B4FFF7F2FF03BC20
:1001A00002F01AFC06480047FEE7FEE7FEE7FEE71E
:1001B000FEE7FEE703480449044A054B7047000088
:1001C000C1000000480320204809202048072020C3
:1001D000480720200FB4054910B503AA029801F082
:1001E00037F810BC08BC04B018470000B400202049
:1001F00070B5044685690068C10601D5302600E067
:100200002026C00707D070BD62683046A1689047BD
:10021000206A401C20626D1EF6D570BD70B5044684
:1002200085690078C00707D170BD6268A168202089
:100230009047206A401C20626D1EF6D570BD0000FC
:10024000F7B5002575291068009914A611D0C0468D
:10025000C046002802DA404211A608E00099096869
:100260008A0701D50FA602E0490704D50EA601258D
:1002700001E0C046C046009F0024243704E000F09F
:10028000FBFF30313955641C0028F8D12B4632462B
:100290002146009800F084FFFEBD00000000000031
:1002A0002D0000002B0000002000000070B5044667
:1002B0000D4621461068C046C0462188090502D572
:1002C0000F4A7A4402E00E4A7A440E322346002155
:1002D000243305E006070009360F965D5E54491C7D
:1002E0000028F7D120780023000705D5702D03D012
:1002F000002901D002231132204600F051FF70BDC9
:10030000764C0000F3B50446002081B02062204600
:10031000E168884700287DD0252802D06268A1685E
:1003200083E0454F00257F442046E1688847202828
:10033000064608DB312E06D2B8192038007800288E
:1003400001D00543F0E7A80701D50420854300202C
:10035000E0610746A0612A2E0AD0304604F074F905
:10036000002827D0B8000019303E0090866119E0BF
:100370000298BA00121902C8916102902046E16801
:100380008847012F064617D1E06900281FDA202090
:1003900085431CE000980A21806948430099801930
:1003A000303888612046E1688847064604F04CF9F9
:1003B0000028EFD1012F0AD02E2E08D12046E16867
:1003C00088470646202005437F1C022FC3DBA06917
:1003D000002803DA4042A06101200543E80701D06C
:1003E00010208543002E24D030464138192803D8E8
:1003F0000120C00205432036204625603146029A7E
:100400001546FFF7AFFE00280CD0012807D0ED1DE0
:10041000E80800E00DE0C0000830029077E72D1DED
:10042000029574E762683046A1689047206A401CD4
:100430006CE7206AFEBD00003A4C000010B504468F
:1004400003E002F07DFE401C08D020780549641CC2
:100450000028F6D10A2002F073FE10BD0020C04330
:1004600010BD0000B4002020034610B50B439B07CD
:100470000FD1042A0DD308C810C9121FA342F8D007
:1004800018BA21BA884201D9012010BD0020C0430A
:1004900010BD002A03D0D30703D0521C07E0002070
:1004A00010BD03780C78401C491C1B1B07D1037836
:1004B0000C78401C491C1B1B01D1921EF1D118461F
:1004C00010BD7047704770470246C80FC007814390
:1004D0004B0030B54B405B009B0D20D01923DB0651
:1004E000C91801231B05994220DB0324A407042516
:1004F0001346AB400BD3002B04D1EB0613409B00FB
:10050000E34204D401246407002312195941FF2354
:100510001B0599420BD2C9000143500F09E0CB02E1
:1005200004D501430803024305D0054830BDFF212F
:10053000C905084330BD084607210905884330BD79
:100540000000C07FF0B50C46871A9C410D46861A04
:100550009D4103D2C01BA141D21963410D0D1F0D56
:10056000C94EEC1BAE435CD07F057F0D0026002FEB
:1005700051D02D05AC46A943DD020123ED0A1B0530
:100580001D4320231B1B24D41746E7403818714114
:100590002F46E740CC199D402818314661410C0D8B
:1005A00027D161449A4013D50023401C5941520081
:1005B0000ED14008400001224B005205D34207D320
:1005C00005204007C14201D5B04900E0B04930469E
:1005D000F0BD6B00002A00D001229A181F23203C96
:1005E0001B1B01D5002302E0E540281871410C0DCA
:1005F000D7D0012424050919C407CD0740084908AC
:10060000E40F28436144002CD5D00024401C6141F4
:100610009A40D0D1CDE76A05520DD9D1C90FC9078B
:10062000D5E79C4D4E00002801D0012400E00024B5
:1006300034195F00002A01D0012600E00026BE190F
:10064000954FAC420CD8AE420AD8B44206D0012530
:100650006D05EC42BCD010461946F0BD9942FCD065
:1006600000203946F0BDF0B51FB40C460F46811A84
:100670009F412546861A9D4106D20125ED076F4010
:10068000401ABC4152187B41210D1E0D8D1BAC46FA
:100690007D4D8D437ED075056D0D7CD00D05AE462C
:1006A000AC431B031B0B794D52429D4120236646F0
:1006B0009B1B14D31746F74038180026009074414E
:1006C00060462F460741E41900989D40281866416E
:1006D00016D4714671189A4025D5012320E093184D
:1006E0002A466A415200002B00D0521C1E23203E95
:1006F0009B1B002B61DD3541EE1728186641E8D5BC
:10070000001876415B1C9A4000D3401C4B05F3183F
:100710001524E34010D3002B52D071467118D30F2B
:10072000C01802D3491C05B0F0BD0123DB079A4273
:10073000F9D140084000F6E701225205B21801D174
:10074000002853D00123CC0ADB029943891E002ADA
:1007500008D1020C03D0020C0004103902E002465A
:10076000002020390023550B05D112020823550B18
:1007700001D152010D23550C01D112011B1DD50CC5
:1007800001D192009B1C150D01D152005B1C20254C
:10079000EE1A01E02CE022E00546F54015439840B2
:1007A000CA1AE10769181305C918002ABBDA032021
:1007B00040070818C10FC9070FE071466118B2E77A
:1007C000F10740080843711071444A000CD001231E
:1007D0005B059A42A7D2C90FC9070020A3E74905C4
:1007E000490D26D1002001E00028F4D100219AE72C
:1007F000284D6600002801D0012100E00021711879
:100800005F00002A01D0012600E00026BE19224F19
:10081000A94210D8AE420ED8B14208D001256D05CC
:10082000E94206D01946A802414010467BE79C42A7
:1008300001D0214677E70020394674E710B50C4611
:100840005C4005D50124E4076340FFF70CFF10BDB1
:10085000FFF778FE10BD30B40C465C4004D501248F
:10086000E407634030BC6DE630BCFCE670B50124A3
:10087000E40761400D465D4002D4FFF763FE70BDA2
:100880006340FFF7F0FE70BDFF0700000000F0FFBF
:100890000000F07F0000E0FF0000F87FF0B5F94DA8
:1008A0000C091E092C402E402F468BB0A7437DD04B
:1008B000B543FCD0002E7AD0002CFCD00D465D4014
:1008C000ED0F2543AC1BFF25AD0464190894C50248
:1008D000440DC9022143500DDC0204430120C0072E
:1008E00001430443D2020191200C110C00958C4667
:1008F000010423468B430A9161460904E24D8A4371
:100900000991010A7D4449198039097805464D430A
:1009100001266D18F605751B6943C90C640B891C0B
:100920004C436418B5012C1B250C2E04B4434C43D6
:100930004D43210C691889090591009DE90701D0F3
:100940000121C90704912C4601996708CD072F435F
:100950004C08059DE10B4D432D0C29466646754319
:1009600002950D4645432E46029D7D1BB4410095E0
:100970000D465D4301942C0C2F040D465543AE46A5
:100980002D0C3D43029503947546049C2D04641B75
:10099000049406D2029C039D641C002675410395B5
:1009A000029401AC70CC009F7D1B01E03EE162E14E
:1009B000B44109040095079101940599A408614385
:1009C000090C0C464443650BE7040C466646744329
:1009D000A646640B3C43039502947446049DE404CC
:1009E0002C1B049406D2029C039D641C00267541B6
:1009F0000395029401AC70CC009F7D1BB44101941F
:100A00000C465C430095650FE7000C465443A64630
:100A1000640F3C43039502947446049DE4002C1B30
:100A2000049406D2029C039D641C00267541039524
:100A3000029401AC70CC009F7D1BB441AE09AF069F
:100A4000049DC900AD092F43049DA406AD0604957D
:100A5000079D344369180791059DE10B4D432D0C0B
:100A600029466646754302950D4645432E46029D2E
:100A70007D1BB44100950D465D4301942C0C2F0461
:100A80000D465543AE462D0C3D43029503947546E5
:100A9000049C2D04641B049406D2029C039D641CD8
:100AA000002675410395029401AC70CC009F7D1B1C
:100AB000B44101948C050694079C890A611800953D
:100AC0000791019C0599A4086143090C0D46454313
:100AD000680BEF040D46644665436C0B3C43049F72
:100AE000ED047D1BAC4602D20025641C6841009ECB
:100AF000019D371B85410846584301950C46460F1A
:100B0000C5005443600F28436546E4002C1B02D205
:100B10000025401C6E41019D3F1AB5412846BD0984
:100B2000800628438446A009BF064E020699A40603
:100B300076180743079D002068410A9907901943DA
:100B40000020099B00906046FF1913434041E20FCB
:100B500064003A43A4460446D71A8C41A04203D904
:100B60000120009020463A46C70F94184041624643
:100B7000D20F2243644664000494009CBE46640085
:100B8000D71AA446044602978C417746002F01D11C
:100B9000A04204D96046401C8446029A2046C40FF5
:100BA000A64694184041049A0546D20F2243644653
:100BB0006400D31A8D417146002901D1A84202D99F
:100BC00028461A46641C10430122002800D0164310
:100BD00061020020079B891904465C410223002C16
:100BE00002DB491813466441089DCE0A2D145D1995
:100BF0004B056705E10A2C050D1908993E43C90705
:100C00006940002B08D0934006D30022761C514146
:100C1000002B01D1760876001C4A002D43DB1542DB
:100C200041D0AA433FD030460BB0F0BD06180D4668
:100C30004D41174C7642AC411AD395181C465C4185
:100C4000134A6D42A24113D3012252054C00D442F3
:100C50000AD15C00D4420BD04B4002D59202114322
:100C6000E2E749004908DFE75940C90FC90718E022
:100C700000200849D8E7054801420DD10342F7D0CA
:100C8000F2E700000000FF076D4600000000F07F63
:100C90000000E0FF0000F87F114859400143C012F6
:100CA00041400020C0E70123089A9B069A4205DCD8
:100CB000032252078918C90FC907B5E70522520751
:100CC0008918074A1143D2125140ADE770B5154655
:100CD0001C4602460B4628462146FFF7DFFD70BD45
:100CE000FFFFFF7FF0B58B4C0F09254689B0BD4350
:100CF0007BD01D092646AE43FAD00E465E40274003
:100D0000F60F3E43254071D024012142FBD0FF2441
:100D1000AD19A4042D1B039501252D05DB02DB0A6B
:100D2000C9022B43C90A29431E010901040F130FED
:100D3000050121431701880B820391432D098C463D
:100D4000A90B1E438A039543B30B9A0396433F09AD
:100D5000BA0B9403A74302962E467E430497B646E9
:100D60004E19D7190C460196544305977E43371BFD
:100D70007646BF1B3601B646BE0B36190096764640
:100D8000BC043719009C01D3641C00946400002F3C
:100D900001D001263443029E049F754366467E437C
:100DA0000496760034196E0034190094029C019E5A
:100DB0001C196643751BAE46069465464519059C8D
:100DC00005956C43594375460891691A0191049E33
:100DD00001465143A41B0491611A009C0791E1064E
:100DE00005D061090122114302E072E06EE0610961
:100DF000089D00272C0A2D066918049D7C412A0AAB
:100E00002D066918019D6241AC0DAD026D1854416B
:100E1000079A910D920255196141029A644658430E
:100E20005443069B059A5A43121A131B9A0E9B01B0
:100E30005B187A41010B0005C3185141220A2006B4
:100E400044195A419A4200D2491C01204002814271
:100E500003D315230226F64302E014230326F643A8
:100E60002020C51AA9401746AF40DA400A43204661
:100E70000399D8400914731819055118039A384377
:100E8000D2075140AC4009D00122944006D3002241
:100E9000401C5141002C01D1400840001E4A9342A1
:100EA00012D3012203989206904207DB05204007E7
:100EB00009181A480143C012414004E003204007CA
:100EC0000818C10FC907002009B0F0BD0020F107C4
:100ED000FAE705180C464C4111486D42A04115D364
:100EE00094181A465A410E48644290410ED301208C
:100EF0004A004005824209D35A00824206D3594033
:100F0000C90F084AC90700201143DDE70020064940
:100F1000DAE700000000FF07FE070000FFFFFF7F89
:100F20000000E0FF0000F07F0000F87F0121C9050C
:100F30000123411842001B06D3185B0E0AD0C110D2
:100F40000722D206891840075242D14201D55200E9
:100F500089187047090208D50146002A03D0C10F3D
:100F6000C9070020704710467047420202D0002097
:100F700002497047072109050143F4E70000F87FA3
:100F8000F0B5FF252D04C609C209FF2704462E40EF
:100F90000137CB093E4348402A402B400746002AF0
:100FA0006BD0002B69D0AA4267D0AB4265D0002835
:100FB00000DA32460125ED0529432C4309022002BF
:100FC000090AD21A4B0C7F24E31A434C000A7C44D2
:100FD000E35C7D242404121914145B00A2188842D7
:100FE00001D3521C00E0400049420C465C432411EE
:100FF0005C43DB016415E318040A5C43C502200D61
:101000000C4644436419250A5D432303EC0C0D464A
:10101000654300030019EB184C42A34201D35B184F
:10102000401CD4052018002B07D05B00C91804D33E
:10103000401C002901D1400840003F2189048A4218
:1010400009D3002A08DC1106090F04D0032149073F
:101050004018C00FC007F0BD0122410012068918D8
:101060007F2252069142F6D205214907C84201D596
:101070009010F0BDFF20C005F0BD002F00DA324611
:101080001648AA4207D2AB4205D21902090E17D060
:10109000F80FC007F0BDFF2563002D06AB42F9D85D
:1010A0004900A942F6D8AB4201D1A942F2D0A942E7
:1010B00001D1002101E061004908D0050843F0BDDD
:1010C0001102090EFBD0FF200243D005F0BD0A46F5
:1010D0000146104654E70000234000000000C07F96
:1010E00010B501469E240002CA15A307002A02D0AB
:1010F0001843002A04DBA21A002A0CDDD04010BDE0
:101100001206120E01D140004008A21A03D4D040AA
:1011100040420028F3DDFF2248001206904201D928
:10112000002010BDC817C043584010BD1F22030C3B
:1011300002D10F2200041CD0030E01D10002083A94
:10114000030F01D10001121F830F01D18000921EF5
:10115000002801DB4000521ED2055118021251181E
:101160001922904004D3491C002801D149084900A4
:1011700008467047C10FC90700D0404201229207BC
:101180001143D3E701218907D0E710B500F0B8F883
:10119000006810BD10B5044600F0B2F8046010BD40
:1011A000FFB504460D4681B02430009021688806C2
:1011B00004D51022E0699143216000E00120A8429B
:1011C00001DD471B00E000270498A1697A19101877
:1011D000081AA0612078C00602D42046FFF708F85C
:1011E000002608E003986268A168805D9047206A45
:1011F000401C761C206204988642F3DB2078C006EF
:101200000AD52046FEF7F4FF06E06268A1683020A8
:101210009047206A401C206238467F1E0028F4DC7C
:1012200007E000986268A168405D9047206A401C12
:10123000206228466D1E0028F3DC2046FEF7EEFFF4
:101240002078000602D5022005B0F0BD0120FBE7A2
:10125000084B70B50D467B4400F05BF80446284609
:1012600000F06AF8002802D00020C04370BD20467C
:1012700070BD0000E71E000001468008081A020940
:101280001018020A1018020C1018C0088200121858
:101290005200891A01E0401C0A390A29FBD2704722
:1012A00070B505464800440D124B0020002C0AD0B2
:1012B000634008D09A4206DA6642B24203DD120564
:1012C0004019514170BD002C08D0002B09D0C90F26
:1012D000C907002AF6DB084A114370BDC90FC907C8
:1012E00070BD28460A03104302D00020034970BD98
:1012F000284670BDFF0700000000F07F0000F87F67
:10130000004870474000202001694A1C02610878AB
:10131000704700B58FB002910021059105490193F6
:1013200079440391114604906846FEF7EBFF0FB035
:1013300000BD0000E5FFFFFFC06880210840704746
:10134000F8B5264C4E00069DA6420AD8A64201D109
:10135000002806D15E00A64203D8A6420AD1002A80
:1013600008D00D242404254233D02946002000F063
:10137000E2F8F8BD0C461C4311D4994207D0C81AB4
:1013800002D3EFF30080F8BDEFF30080F8BD801AC0
:1013900002D3EFF30080F8BDEFF30080F8BD09241D
:1013A0002407E5008B4207D0581A02D3EFF30080E0
:1013B00006E0EFF3008007E0101A03D3EFF300809C
:1013C000A04303E0EFF30080A043284380F30088AC
:1013D000F8BD009500F0C6F8F8BD00000000E0FF81
:1013E000F0B53D4B02460C461C400020002C63D05B
:1013F0003A4D8B4366D000296BDB0B0D1D05A943CD
:1014000001252D0529430124FD33E34001D3921822
:101410004941FF3381339C468B02940D01212343C4
:1014200089074C42920200271B198C105D1A04D4C4
:101430002D1B02D42B466500491992185B416408A4
:10144000F4D15C1A08D40125ED07EE175519744143
:1014500002D42A462346491C94185B410122920774
:101460001D46E61B8D4106D4B61A854103D42B4692
:10147000550034467F1924195B415208802AEFD168
:10148000234300D0022338460A22D04001D3012250
:1014900013438A0510436246890A12058918002BF6
:1014A00009D00122D34002D30022401C5141002B1D
:1014B00001D140084000F0BD0B03134307D0C90F12
:1014C000C907F0BD0803104303D1002901DB104612
:1014D000F0BD00202946F0BD0000F07F0000F87F3D
:1014E00000487047400020207546FFF7F9FFAE46E0
:1014F000050069465346C008C000854618B020B5AF
:10150000FEF758FE60BCB64600260027C0C5C0C521
:10151000C0C5C0C5C0C5C0C5C0C5C0C5403D4908DF
:1015200049008D46704710B50446C046C046204667
:10153000FEF732FE10BDC80212D54803400F002846
:1015400004D0C803C043012188407047EFF30080F6
:101550000001000903210907084380F30088704750
:101560000020704710B500200249029A00F004F8EC
:1015700010BD00000000F87F10B50C461107090FE0
:10158000092904D00A290AD008290CD104E01146FF
:101590000820FFF7D0FF06E0510606D501E051060E
:1015A00001D50120C007214610BDD10607D5010194
:1015B0000909CC084907000E0006044309E0410F61
:1015C00020024907000A0143200E00061D22D141D6
:1015D00001430846E7E7811E091F00BFFCD27047A0
:1015E000F0B583B00B794A79002A2AD01A4A1B4CED
:1015F0001B4F21252D01202B00D070358618021994
:101600000092C219002B00D188251768464C27404C
:101610007F191760576827407D1955603568804FDE
:101620003D40356075683D4075600025009C256033
:1016300065608F24E443156925401561556925408F
:10164000556101AA13718B79537109680191114693
:1016500000F008F803B0F0BD38180000581800007A
:1016600078180000F0B584B06B4A82180292734B70
:10167000C618784BC21800922A4BC4180A790191F7
:101680000D68294F202A03920AD0254BC018002A42
:1016900017D16B1E029A536023683B40882517E0E0
:1016A000681E029A506020683840204B1843206022
:1016B0006068384018436060012045071C4F1046A1
:1016C00008E06B08029A536023683B400525ED0152
:1016D0002B432360009903683B402B430360306831
:1016E0004F4B1840306070681840706000200860F0
:1016F00048608F20C043236903402361636903402E
:1017000063610198407903990843BD210140106845
:10171000084B0340C818801C106004B0F0BDC046E0
:10172000741800007018000024F93FF00104000054
:10173000FFFFFFCF4000FFCF70B5374A82184B68DC
:1017400053603E4BC3180878222857D8840001A55F
:101750002C59A746F3170000FD170000F3170000EF
:10176000FD170000FD170000FD170000FD17000029
:10177000FD170000FD170000FD170000FD17000019
:10178000FD170000FD170000FD170000FD17000009
:10179000FD170000E1170000FD170000E117000031
:1017A000FD170000FD170000FD170000FD170000E9
:1017B000FD170000FD170000FD170000FD170000D9
:1017C000FD170000FD170000FD170000FD170000C9
:1017D000FD170000E1170000FD170000E1170000F1
:1017E000032424071568A543012464072C191460F9
:1017F00004E0032424071568A54315600C69D46030
:10180000CC68064D25401C68054E264074191C60A6
:10181000097A0143116070BD041800007777020057
:101820008888FDFF10B507239B041940920080189B
:10183000024A84589C436118815010BD3018000042
:1018400010B5029CA400001911431943014A8150AC
:1018500010BDC0465018000092008018014A815007
:101860007047C0461018000010B5012212038318FB
:101870000C789C604B7883508978014A815010BD68
:101880000C110000B0B51122120283580124A343A9
:1018900083508B780C881C438B882343094C1C4055
:1018A0008358094D1D402B1983508B79CC791C43EB
:1018B000097A21437E231940801842689A435118BF
:1018C0004160B0BD18670000E798FDFF10B5012228
:1018D000120383180C789C604978815010BD000079
:1018E000F0B589B045488121016045480221039146
:1018F000016001640A2001F071F868266B27012459
:101900008023029330463946224600F041FA642093
:1019100001F064F800253046394622462B4600F097
:1019200037FA1B2118233046224600F031FA1C21D9
:10193000304622462B4600F02BFA04AB04200190DF
:10194000187019213046224600F022FA05AB0398A0
:1019500018701A213046224600F01AFA3821304613
:1019600022462B4600F014FA6A21304622462B46C6
:1019700000F00EFA2321304622462B4600F008FAEA
:10198000372130462246029B00F002FA06AF3D8026
:101990007521304622463B4600F03AF80146194888
:1019A000FEF718FC3878682822D11848682529469F
:1019B000FEF710FC6B2128462246234600F0E8F98A
:1019C0006C2100232846224600F0E2F907AB01987B
:1019D000187019212846224600F0DAF908AB03985E
:1019E00018701A212846224600F0D2F9254602E056
:1019F0000548FEF7EFFB284609B0F0BD08804240DD
:101A000090120A40905D0000AB5D0000995D0000FF
:101A1000F0B58BB00493029209910A90D8498120C5
:101A200008900860D74D02272F602F6401262E6092
:101A30002F612F600524204600F0F2FF2F61204621
:101A400000F0EEFF2E610A9840000590C0B200F051
:101A500043FD2E6106972F60C94CCB48206003964A
:101A60002E60CA4C2068800736D5052000F0D8FFCC
:101A70002068800730D5052000F0D2FF206880075D
:101A80002AD5052000F0CCFF2068800724D505204A
:101A900000F0C6FF206880071ED5052000F0C0FFBB
:101AA0002068800718D5052000F0BAFF206880075D
:101AB00012D5052000F0B4FF206880070CD5052062
:101AC00000F0AEFF2068800706D5052000F0A8FFD3
:101AD0002068800700D50AE101262E610898A84FEA
:101AE0003860069C2C602C64099800F0F5FC2E618F
:101AF0002C60A64CA44838600A962E6020688007A7
:101B000036D5052000F08CFF2068800730D50520F1
:101B100000F086FF206880072AD5052000F080FFAE
:101B20002068800724D5052000F07AFF2068800710
:101B30001ED5052000F074FF2068800718D5052009
:101B400000F06EFF2068800712D5052000F068FFC6
:101B5000206880070CD5052000F062FF2068800710
:101B600006D5052000F05CFF2068800700D5D6E090
:101B70000A9E2E6108988249086002272F602F6410
:101B800008602F602F642E602F612F60052420468F
:101B900000F046FF2F6120467C4C00F041FF2E6193
:101BA00005983043C0B200F097FC2E6107972F6074
:101BB0007548734908602E602068800736D5052077
:101BC00000F02EFF2068800730D5052000F028FFA8
:101BD000206880072AD5052000F022FF20688007B2
:101BE00024D5052000F01CFF206880071ED50520A5
:101BF00000F016FF2068800718D5052000F010FFC0
:101C00002068800712D5052000F00AFF20688007B1
:101C10000CD5052000F004FF2068800706D50520BC
:101C200000F0FEFE2068800700D590E00A9E2E613D
:101C3000089F53480760079C2C602C640021029881
:101C40000228019125D3451E0595049F4D4C079E02
:101C500000F05EFA387008984949086026602664EA
:101C60000A98206126610520099000F0D9FE2661BE
:101C70000A982060099800F0D3FE0A982061266037
:101C80006D1E7F1C002DE3D13E4D089F079C0599DA
:101C90000A9E059100F03CFA0499059A8854384848
:101CA00007602C602C642E612C6127460524204699
:101CB00000F0B6FE2F602E60204600F0B1FE2E61CF
:101CC000089E2F60019F2E480660069E2E602E649F
:101CD000039828612E6128600524204600F0A0FEAC
:101CE0002E60204600F09CFE38460BB0F0BD05206B
:101CF0000A9000F095FE2068089EF3480660069F53
:101D00002F602F64039C2C612F612C600A9800F0D7
:101D100087FE2F600A9800F083FE2746D3E7264609
:101D20000524204600F07CFE3068089EE6480660E8
:101D3000069F2F602F640A9828612F612860204633
:101D400000F06EFE2F60204600F06AFEBBE72646DC
:101D50000524204600F064FE3068089EDA480660DC
:101D6000079F2F602F640A9828612F612860204602
:101D700000F056FE2F60204600F052FE0327A2E737
:101D80000880424090120A408100040080130A40FB
:101D9000F0B587B00393049201910690CA4981205F
:101DA00005900860D14F02253D603D6401243C60F0
:101DB0003D613D600526304600F032FE3D61304613
:101DC00000F02EFE3C6106984006000E00F084FBF9
:101DD0003C6106953D60BD48BB4908603C60BC4E17
:101DE0003068800736D5052000F01AFE306880077D
:101DF00030D5052000F014FE306880072AD5052074
:101E000000F00EFE3068800724D5052000F008FEA3
:101E1000306880071ED5052000F002FE306880077C
:101E200018D5052000F0FCFD3068800712D505208C
:101E300000F0F6FD306880070CD5052000F0F0FDBD
:101E40003068800706D5052000F0EAFD306880077D
:101E500000D5EFE001253D610598FC4E3060069C01
:101E60003C603C64019800F037FB3D613C60F84801
:101E700030603D60F84E3068800737D53446052025
:101E800000F0CEFD3068800730D5052000F0C8FD99
:101E9000206880072AD5052000F0C2FD2068800751
:101EA00024D5052000F0BCFD206880071ED5052044
:101EB00000F0B6FD2068800718D5052000F0B0FDC1
:101EC0002068800712D5052000F0AAFD2068800751
:101ED0000CD5052000F0A4FD2068800706D505205C
:101EE00000F09EFD2068800700D5C5E03D610598A3
:101EF000D64C20600221396039640498002800D152
:101F000084E00026029506910AE0029D3D61CF4CD7
:101F10000598206039603964761C0498B04275D009
:101F20000398805D00F0D8FA06993D613960E54874
:101F300020603D60C84C20688007E6D5052000F091
:101F40006FFD069920688007DFD5052000F068FD49
:101F5000069920688007D8D5052000F061FD069914
:101F600020688007D1D5052000F05AFD0699206829
:101F70008007CAD5052000F053FD06992068800728
:101F8000C3D5052000F04CFD069920688007BCD51C
:101F9000052000F045FD069920688007B5D505208D
:101FA00000F03EFD069920688007AED5052000F0C0
:101FB00037FD069920688007A7D5052004900D46B7
:101FC00000F02EFD2068A14C059820603D603D6426
:101FD000029838613D613860049C204600F020FD85
:101FE0003D60204600F01CFD0598984908603D6062
:101FF0003D64029838613D613860204600F010FD74
:102000003D60204600F00CFDF41C10E005982060B7
:10201000396039643D6139613D60052420460D46D3
:1020200000F0FEFC3D60204600F0FAFC0024E0B227
:1020300007B0F0BD0525284600F0F2FC3068834863
:1020400005990160069E3E603E643C613E613C60D5
:10205000284600F0E5FC3E60284600F0E1FC7B48A5
:10206000059901603E603E643C613E613C602846EB
:1020700000F0D6FC3E6022E0744C2E460525284632
:1020800000F0CEFC7448006805982060069C3C6017
:102090003C643E613C613E60284600F0C1FC3C600F
:1020A000284600F0BDFC6948059901603C603C642D
:1020B0003E613C613E60284600F0B2FC3C60284630
:1020C00000F0AEFCB3E7C046088042408100040047
:1020D00080130A40012001027F4A11604002106112
:1020E00003488021016040210161704790120A403D
:1020F00090320A4001200102564A116040021060ED
:10210000024840210160802101607047A0320A40EE
:10211000F0B587B04D486B4901604E4F01263E60D7
:102120000524204600F07CFC3D46103D2E602046F4
:1021300000F076FC484800680690204600F070FCED
:102140003E60204600F06CFC2E60204600F068FCEB
:10215000414F38680590204600F062FC3D4806601B
:10216000204600F05DFC2E60204600F059FC3868E7
:102170000490204600F054FC36480660204600F0EB
:102180004FFC2E60204600F04BFC38680390204640
:1021900000F046FC2F480660204600F041FC2E600F
:1021A000204600F03DFC38680290204600F038FCE4
:1021B00028480660204600F033FC2E60204600F0E0
:1021C0002FFC38680190204600F02AFC2148066068
:1021D000204600F025FC2E60204600F021FC1E4821
:1021E0000768204600F01CFC1A480660204600F0F4
:1021F00017FC2E60204600F013FC174805682046A7
:1022000000F00EFC134806600698420004210A40C4
:102210000220059B03409A189200049B5B000B4030
:10222000D218039B03409A189200029B5B000B405C
:10223000D118019A02405118490007407818A9079F
:10224000C90F0818C0B207B0F0BDC04608804240B0
:1022500081000400A0120A4080130A4010B51749FB
:1022600088228A63164804230360CA630822026036
:1022700082220A65134A531C4B6581230B604B6015
:102280008B64CB648B65CB650F4CA3610F4B2360D4
:10229000A3620F4BE3642365A264A2630D4A8A60C4
:1022A000DF490E4A0A6103230B60D21C0A6401460F
:1022B0003039C0220A60026010BDC046048042402E
:1022C000D0320A408100040088804240810006002C
:1022D000810005008100020090120A4000030410F2
:1022E000F0B581B01A4C1B492046FFF7BDFA1A49D8
:1022F0002046FFF775F900250095204629462A4615
:102300002B46FFF79DFA204629462A46FFF78AFA10
:10231000FF26F436204631462A46FFF79DFA01276C
:102320000097204629462A462B46FFF789FA204681
:1023300029463A46FFF776FA204631463A46FFF7F5
:102340008BFA064887600321016001B0F0BDC046EA
:1023500000208640245D0000285D0000003186409A
:102360000C48002101600320C1430B480246083A93
:1023700013680B4013600168012291430160110250
:1023800003688B4303601103001F02680A43026065
:102390007047C04608030B4008010B400548042164
:1023A00001601F21416000218160016805220A430C
:1023B0000260704710E000E010B5084C0849204664
:1023C000FFF752FA07492046FFF7B6F906480168B9
:1023D0000122114301600548026010BD00008640E3
:1023E000305D0000345D00002810864008118640F2
:1023F00010B5144C14492046FFF768FA13492046DB
:10240000FFF740FA0321CA031148036893430360AE
:102410000269104B13401A33036142690A433C219D
:102420008A4342614168012211404368934359182D
:1024300041609102084B1C680C431C600168114309
:10244000016010BD00801040485D00004A5D000042
:10245000009110400000FFFF2890104080B500F070
:1024600017F8FFF7FBFEFFF77BFFFFF739FFFFF7DA
:10247000A3FFFFF7BDFFFFF791FFB820024900223D
:102480000A5402490A5480BDE80120202C01202072
:10249000B0B50A480A4941600A4A51600A4B59607E
:1024A0000A4C61600A4D69600A4901601160196057
:1024B000216029601020FFF78EF8B0BD00080A40A7
:1024C000030000B100280A4000288640000886402A
:1024D0000088104001000026F0B583B04F4A8121EA
:1024E0001160814D022129600291296401242C612F
:1024F000019040B22F4610370028384600DA2846AF
:1025000002990160204600F08BFA2C6005263046C7
:1025100000F086FA2C61304600F082FA01984006FD
:10252000384600D5284602990160204600F078FA26
:102530002C60304600F074FA2C61304600F070FADE
:1025400001988006384600D5284602990160204649
:1025500000F066FA2C60304600F062FA2C613046DA
:1025600000F05EFA0198C006384600D52846029968
:102570000160204600F054FA2C60304600F050FA1A
:102580002C61304600F04CFA01980007384600D51F
:10259000284602990160204600F042FA2C6030463D
:1025A00000F03EFA2C61304600F03AFA01984007FC
:1025B000384600D5284602990160204600F030FADE
:1025C0002C60304600F02CFA2C61304600F028FADE
:1025D00001988007384600D52846029901602046B8
:1025E00000F01EFA2C60304600F01AFA2C613046DA
:1025F00000F016FA0198C00700D02F460298386004
:10260000204600F00DFA2C60304600F009FA2C61EB
:10261000304600F005FA03B0F0BDC04608804240E5
:1026200090120A40F0B581B02A4D2868012800D1E7
:10263000FEE719200401204601F016FE3C34204636
:1026400001F048FEB348B449B44C224600F0D6FE2F
:10265000002806D12068FEF743FD0146B048FDF78B
:10266000B9FD0124E105AF4A106808401A49086025
:10267000230611681940194A1160AC4E32681A409D
:10268000174B1A60270533683B40164E33604642AD
:10269000464148424841304351425141014358422A
:1026A00058410843012812D12C60FFF713FD322056
:1026B00000F094F9FFF71EFDA404A94D2C607D26BF
:1026C000300100F08BF92C61F00000F087F901B0C7
:1026D000F0BDC04628012020380320203C032020E4
:1026E000400320201000202090120A40F0B585B051
:1026F00088488949894D2A4600F080FE002806D185
:102700002868FEF7EDFC01468548FDF763FD0124CE
:10271000E105844A1068084041424141824E71708F
:102720002306116819404A424A4132707F4F3A6885
:102730001A4053425341B37023053F681F407B4208
:102740007B41F3700818400DD10D081819180E20A0
:1027500048400F2800D9C6E07844007940008744FB
:10276000073E302D21C224494FC2C2C268C25D1348
:10277000734801680D2900DDBBE0491C01607D2024
:102780008000A5380A22B7E0694804606A480460FE
:102790006A48322101606A4800210160654804707E
:1027A000204655E064490A2045E062480121017055
:1027B0007D208000C8385E49086037E05C4802210F
:1027C00001E05B480A2101605C48012101605C482E
:1027D00000220260574801707D20800026E05448A6
:1027E0000A2101605548012101605548002202601C
:1027F000504818E05049022008604E49012209E083
:102800004D490A2008604D4901220A604C490023C5
:102810000B6048490A701921490117E04448022118
:1028200001604448012101701920400142490860BB
:102830000EE0414902200860404901220A604049F7
:1028400000230B603B490A707D218900384A1160E2
:1028500001F00AFD364F386801F03CFD2868FEF7AC
:102860003FFCB37872783178F578334E36683F683C
:10287000009501ADC1C533A0FDF7ACFC204600F0CA
:10288000ADF8A504354C20782A4E3178344B81427E
:102890000DD13448016800290CD04A1C026003297C
:1028A00008DB31490F220A600021016006E02D4853
:1028B000012101602C48006800280FD01D602A4FBC
:1028C0003868411E396029A026461C46FDF782FC67
:1028D00023463446174E3868002800D11D613078F1
:1028E000207005B0F0BD1348012101701248006846
:1028F000AEE71920400102460D4B1A600E4A1060E7
:102900000E4A012313600E29A2D10A4900220A703F
:102910009EE7C046AC022020340320204403202040
:102920007B5D000080130A400801202080330A40AC
:102930000C002020A4022020A8022020A800202093
:10294000B000202025642564256425642C25640AB4
:102950004C3D25642C523D25640A0000AC0020202B
:1029600090120A40A4002020A00020200A0A2D2D49
:102970002D25640A0A00000010B512480068C0B294
:102980000B281ED11048C169104A13887E2B13D81A
:1029900013885C1C14800E4AD1540268D20708D0F8
:1029A0000268D20705D00268D20702D00268D207B7
:1029B000F3D1C9B2816101E00020108005480121F6
:1029C000017010BD2090104008911040320320206B
:1029D000B00220203003202070470000B0B57D21D8
:1029E000090241431E480368262206E0E41A051F37
:1029F0002D686419A2188A4210D21C460368A342AB
:102A000008D10368A34205D10368A34202D1036839
:102A1000A342F3D09C42E9D9E41AEBE7B0BDC0462B
:102A2000B0B50F490B684001262206E0E41A0D1FDD
:102A30002D686419A218824210D21C460B68A3426A
:102A400008D10B68A34205D10B68A34202D10B68E1
:102A5000A342F3D09C42E9D9E41AEBE7B0BDC046EB
:102A600018E000E0F0B58DB0044607AF0920F8701B
:102A7000E320B870CA207870022002903870682075
:102A800004213A4601F0BAFBA32179723972F97137
:102A9000402323405C20C043002B024601D03D224E
:102AA000D243FA70002B024601D03722D243BA70CB
:102AB0003F250593002B024600D0EA4301957A702A
:102AC000397001252E0231468031214006910146A0
:102AD00001D03921C943B97106990029014601D0B5
:102AE0003321C94379710699002901D03B20C043A5
:102AF00038717D480F300A213A4601F07FFB0320F0
:102B0000272120400490039101D0202000E0C843F9
:102B1000387075481E3029463A4601F06FFB972001
:102B2000C000A10605D4C7210C9172490B917249CE
:102B300004E05D210C916D490B916D490A910921C9
:102B40000AAA01F05BFB0698002821D0264001D09C
:102B5000642000E06F20C04307AAD070002E01D08F
:102B6000492000E04B20C0439070002E01D074201B
:102B700000E07F20C0435070002E01D04D2000E0C7
:102B80004F20C043107058480A30042101F036FB32
:102B90008B200001E10704D107AAD821117001217F
:102BA00049E007AAF82111700125294601F026FB0A
:102BB0000720FA2100F02AFA0AAA019810702920A9
:102BC000C7003846294601F019FB0AAA00261670EC
:102BD000F81D294601F012FB0AAA14205070167045
:102BE00038469630029D294601F008FB0AAA642067
:102BF0005070167038469230294601F0FFFA0AAA42
:102C00009020D070F92090708E2050701670384649
:102C10001430042101F0F2FA0AAA0820507016704C
:102C200038461230294601F0E9FA0AAA55701670A2
:102C300010373846294601F0E1FA059DA0070398B0
:102C400000D52620C04307AA10702C48012101F0AE
:102C5000D5FA600704D42A480A9004210AAA09E098
:102C60000AAAC620D070C4209070C2205070C02024
:102C7000107004211C4801F0C1FA00F0D5FFE006F5
:102C800006D420480A901848801D04210AAA0BE0A7
:102C90000AAA3820D0703020907028205070202050
:102CA00010701148801D042101F0A8FA00F0BCFF4B
:102CB0000820204381490880002D00D00625069871
:102CC000002800D0AD1D1420044201D0102005437F
:102CD0000498002800D02D1D00F0A6FF764805704E
:102CE00000200DB0F0BDC046980A0000B4980D3524
:102CF000B8AAB38DB088C3C5B8AAAAAA3D07000078
:102D00008B8B8B8BA3A3A3A380B5012082020348E6
:102D10000349C82300F0B0FD80BDC046F60B00009B
:102D20002E510000F0B591B0089307920C4606466C
:102D3000169F00253D806048007809A9179A00F089
:102D400021FF0146E843002901D011B0F0BD04A9DC
:102D5000D0C15A490E880124230214210E4249D0C1
:102D600001930296099903940A0609A94B781B045A
:102D70009C18CA788B781B029A181219079F3A6020
:102D80000A9A12064B791B049A18CB798E7936026F
:102D9000F3189B187B600B9B1B064E7A3604F618C3
:102DA000CB7A8D7A2D02EB189B19BB600C9B1B060E
:102DB0004D7B2D04EB18CD7B897B09024919C9187D
:102DC000F9601114494322145243511832145243EA
:102DD00089181A1452438918F12212068918039A85
:102DE000520691425FD806990888019B18430880D3
:102DF0001025029E700602D42846069C18E009A8F9
:102E000041194A78405D00028018049C2080C878EF
:102E10008A78120210186080487909790902081826
:102E2000A080069C20880821014321800620284399
:102E300080331E42059D15D009A90A185378095CF4
:102E40000902C9182980D17893781B025918698022
:102E50005179127912025118A980218870220A43EF
:102E60002280801DB10718D009A90D18EC78687868
:102E7000C1070AD012490A68002A06D0072020405C
:102E8000411CA006400F90476878000705D50D4803
:102E90000168002901D0A0098847089800F05AFA73
:102EA000002011B0F0BD054600F0BEFE284600210E
:102EB000069A118011B0F0BD2601202020012020AB
:102EC0001401202018012020F0B585B01349049189
:102ED00013490391134902910026F443C82819D8D5
:102EE0006D462E700746C1B2C82001F029FA401E77
:102EF00068700D4802212A4601F080F9002809D1A6
:102F00000A480C2102AA01F079F9002802D10848E8
:102F100007803446204605B0F0BDC046BBAFDFDFBA
:102F2000AAF1DFDFFEF2ABC416020000C10A000006
:102F300024012020F0B583B00446032108402D4B26
:102F40001D5C02AA15702C4D285C01AE3070200665
:102F5000800F1F5C9770E706BF0FDB5D5370285C26
:102F6000B070E85D7070254E304601F047F90027DB
:102F7000FD43002829D1301D032101AA01F03EF9AB
:102F8000002822D11E4801901E48029060071FD4DD
:102F9000A00625D4E00505D501A86721817002A807
:102FA0007721817030461A30032102AA01F026F9F8
:102FB00000280AD10B36032101AA304601F01EF980
:102FC000002802D1104804803D46284603B0F0BDD9
:102FD00001A82721017002A837210170A006D9D5C8
:102FE00001A84721417002A857214170E005D3D4C0
:102FF000D8E7C0462B5100002851000026040000ED
:1030000026466600365676001C012020F0B585B0B5
:103010000E4605460021CC431920800186426FD818
:10302000072028406CD0019103AF384600F03EFBEA
:103030003046FEF7A7F83D49FDF7A2FF39788A1E12
:103040000121CA41072A5BD88D21CE053849C046E7
:103050007A441279520097440E0353075353530B8B
:1030600023214E06354906E08B21CE05324902E088
:1030700045210E062F490294074601F09FFEFEF7F8
:103080002FF8044631462E4604ADE870384601F06C
:1030900095FEFEF725F86870210AA970000A2870CD
:1030A000AF1CF00706D1B00718D47007029C2AD4D1
:1030B000019C25E03C46492087003846B03002217B
:1030C00004AA01F09BF8002819D1022138462746AE
:1030D000224601F093F8002811D1E4E7492084004A
:1030E0002046B430022104AA01F088F8002806D155
:1030F000201D02213A4601F081F80028D5D0029C1B
:10310000204605B0F0BD492085002846B830022190
:1031100004AA01F073F80028F2D1083502212846EC
:103120003A4601F06BF80028EAD1C1E700004843B5
:10313000000040460000C044000040450000C0457B
:1031400007490A68D20708D00A68D20705D00A687A
:10315000D20702D00A68D207F3D1C2B28A6170479F
:103160000891104010B500228156002913460CDD4D
:1031700003214456002C114617DD06240457002C69
:103180001BDD19431143084610BD00291FD401233C
:10319000C1560029ECDC00292DD40223C156002998
:1031A000E6DC002935D00623E2E7002C11D4042107
:1031B000415600290FDD0821DFE701221202002C11
:1031C000DFD407240457002C0DDD4022D9E7042367
:1031D000CEE72021D1E700290FD40521415600294F
:1031E0000FDD1021C9E7002C09D40824005700285E
:1031F0000BDD8022C5E70523BAE72821BDE7403271
:10320000BFE7002907D03021B7E7002805D080208C
:1032100004E00723ACE73821AFE7C0201218B0E77D
:10322000FFF71CF928480168012631430160FEF7C9
:1032300057FB00F0C7F900280AD024A42046FDF768
:10324000FDF8C820FFF7CAFB00F0BCF90028F5D153
:1032500021A0FDF7F3F828A0FDF7F0F834032B4880
:10326000016821402A4D2960B6042A480068304090
:10327000294F386029A0FCF7ADFF39682AA0FCF778
:10328000A9FF04E02FA0FDF7D9F8FFF72FFA28686F
:10329000A0420AD00028FAD13868B042F2D0002803
:1032A000F5D12AA0FDF7CAF8F1E73868B04205D099
:1032B0000028ECD121A0FDF7C1F8E8E71DA0FDF73B
:1032C000BDF8FFF7AFF9E2E704388640646D70207F
:1032D0006572726F720D0000496E697469616C6984
:1032E0007A6174696F6E2044617461205375636301
:1032F000656564200D000000496E697469616C7A2F
:103300006520436F6D706C6574650D0080130A4015
:103310000C01202080330A4010012020424F4F54DE
:10332000313D2025640D0A00424F4F54323D202587
:10333000640D0A005031310D000000005031300D95
:10334000000000005030310D000000005030300D02
:103350000000000070470000F0B585B0044624204E
:10336000DC4E305C002802D0002005B0F0BDB17A00
:103370000020C74300293ED0FE2214402140357C66
:103380003174A14200D0C043002C14D1317D0029FA
:1033900011D1044604AB0020187005CEC17B107813
:1033A0000122083EFEF7F4FC002801D10498707455
:1033B000204605B0F0BD717C002912D103AB01227B
:1033C0001A70316801957568C97B2D78029028467E
:1033D000019DFEF7DDFC01460298002901D1039909
:1033E0007174002CE5D0044600F01EFC0146204616
:1033F0000029DED03574384605B0F0BDF0B597B081
:1034000015460E46044610A8019011A8009014A875
:1034100012A90CAA16ABFFF785FC002802D00120E8
:1034200017B0F0BD11A80088C00502D4022017B063
:10343000F0BD0C98FDF79EFE61210895CD0529464B
:1034400001F0BCFC0A900D98FDF794FE294601F0AE
:10345000B5FC074605900E98FDF78CFE294601F055
:10346000ADFC09900F98FDF785FE294601F0A6FCFA
:1034700005460B9003208107384601F09FFC049419
:10348000044606900A98014601F052FC0390099FF9
:10349000394601F093FC079606462046294601F07E
:1034A0008DFC314601F044FCFDF740FD01F0D4F8FD
:1034B000424A434BFDF716FCFDF706F804990860F5
:1034C000384639463D4601F033FC06460398059FD1
:1034D000394601F073FC044630460B9901F06EFC4E
:1034E000214601F025FCFDF721FD04460491284604
:1034F000314601F063FC06460698394601F05EFC51
:10350000314601F0B3FC7F21C90501F011FCFDF744
:103510000DFD02460B462046049901F0E5FA274AC4
:10352000274BFDF7DFFBFCF7CFFF079908600A9DEB
:1035300028460B9901F042FC04463E463846099F56
:10354000394601F03BFC214601F0F2FB014601F057
:10355000EFFBFDF7EBFC044607913046314601F0E6
:103560002DFC06462846294601F028FC314601F08C
:10357000DFFB06463846394601F020FC014630465E
:1035800001F074FC06460B98014601F017FC014659
:10359000304601F06BFCFDF7C9FC02460B462046A5
:1035A000079901F0A1FA054A054BFDF79BFBFCF7D3
:1035B0008BFF08990860002017B0F0BD666666664C
:1035C00066A64C40F0B583B000F08AF8000602D041
:1035D000002003B0F0BD7824204600F0A3FD0006D3
:1035E00002D0012003B0F0BD2420EC4D285C00285F
:1035F00007D0C82000F024FD000626D0032003B029
:10360000F0BDAE7A0220002EE3D0074626402C7C87
:103610002E74687C002810D102AB01221A70286831
:1036200021466C68C07B019020780C460199FEF71A
:10363000AFFB002801D10298687400F0F5FA002869
:1036400014D02C74384603B0F0BDFFF75DFB0006C4
:1036500002D0042003B0F0BD1348FFF783FDFFF74D
:1036600069FC000606D0052003B0F0BD782E384670
:10367000AFD1BEE7FF207430FFF7F4F9000602D0A7
:10368000062003B0F0BDC820FFF71EFC000602D0E4
:10369000072003B0F0BD012000F032FC000697D0F7
:1036A000092003B0F0BDC0460000202010B501463F
:1036B0000020BA4B5A7A032A0AD8D200064CD440CA
:1036C0000C70DB7C002B02D0044BD3400B7010BD80
:1036D000C04310BD1400202002040810040810206C
:1036E000F0B585B002AB802018704E4F05CF817CBD
:1036F00010780122083FFEF74BFB0026F443002818
:1037000018D16420FFF76AF902AB1E7005CF817CE7
:10371000107801252A46083FFEF73AFB002809D118
:1037200005CF817D1078062202AB083FFEF770F9C5
:10373000002802D0204605B0F0BD02A841782940FB
:103740004279D207520FC078C007800F8018411805
:1037500046D0012902D002295AD13146FF20B8743F
:1037600038743A48F881F9743D73BC6028047E616E
:10377000BE61FE6138623846083006774677867744
:10378000C67704AB1820187005CF817910782A46C7
:10379000083FFEF7FDFA0028CCD104A80078C00845
:1037A0003872022000F0E6FA0028C3D12A2000F087
:1037B0000FFC0028BED1322000F042FC0028B9D115
:1037C0000020FFF7C9FD0028B4D10025284600F0ED
:1037D00013FB0028AED1284600F0A4FC2C46A9E734
:1037E00005CFC1781078012202AB0192083FFEF7A5
:1037F0000FF900289ED102A801780F200840042864
:103800000AD000283146A9D10F48FCF717FE91E7EE
:103810000FA0FCF7DFFC8DE703A0FCF70FFE01997A
:103820009CE7C0461400202048616C662073656EDA
:103830007369746976697479207061727420666F37
:10384000756E642E00000000BE5D0000FFFF0000EA
:10385000556E737570706F7274656420736F6674E3
:10386000776172652070726F64756374207265761B
:103870002025642E0A000000F0B58FB00746002511
:10388000E8430891002977D02524E649095D0029FD
:1038900072D10094039002920193002F5CD00497A0
:1038A000AEB2BB1B102BDF4A00DB1023907A00283E
:1038B00064D00EA845702F0A0770E8B299B207913C
:1038C0000C18506841898C4258D800781168097EDC
:1038D000022209930EABFEF75BFA099BD14900283F
:1038E0004CD132463E460898871805C9417D10786C
:1038F000DAB2069205973B46FEF74AFA00283DD118
:10390000C84A907A002839D0F0B20EA94D700870DC
:10391000506841898C4231D800781168097E0222B2
:103920000EABFEF735FABF49002827D105C9417D06
:1039300010780AAB069AFEF76BF800281ED10AA988
:103940000598079AFCF790FD002822D109982D18B8
:10395000A8B2049FB842A3D30EAB02985870000AD5
:103960001870B04C05CC817E10780222083CFEF71E
:103970000FFA0028039804D00FB0F0BD03980FB0E1
:10398000F0BD0120009960540198E08400200FB040
:10399000F0BD0398401E0FB0F0BDC04614002020BB
:1039A000F0B589B00025EC43282800D9E6E00028CE
:1039B0000AD001942327EE4CE15D012938D0A17C87
:1039C000002918D0322217E02326E94DA85D0028EF
:1039D00000D1C4E0A87C411E02468A41510003AADE
:1039E00011702221695C002900D1ACE0002800D1CF
:1039F000A5E07D20A4E03022009004A802702220DF
:103A0000205C002807D0002901D04D2000E04F2085
:103A1000C04304A9087005CC017D1078012604ABD1
:103A20003246083CFEF7B4F90028009800D1E6556C
:103A300002A920220A70012831D102A80021417078
:103A40002646A07A002811D005A806210170F07A38
:103A500006280BD005CE81781078012205AB083EF0
:103A6000FEF796F9002801D10598F072019C02AB8F
:103A700058788001C01D587005CE817C10780222D4
:103A8000083EFEF785F9002878D10120307535739E
:103A90000820B0722846FFF75FFC2C466EE0052830
:103AA000264618D802A801214170B07A0028019C4E
:103AB000DDD006A806210170F07A0628D7D005CE01
:103AC00081781078012206AB083EFEF761F90028E4
:103AD000CDD1069831E01428019C17D802A8022104
:103AE0004170B07A0028C2D007A805210170F07A91
:103AF0000528BCD005CE81781078012207AB083E9E
:103B0000FEF746F90028B2D1079816E002A8032173
:103B10004170B07A0028AAD008A804210170F07A78
:103B20000428A4D005CE81781078012208AB083E85
:103B3000FEF72EF900289AD10898F07297E77F20B7
:103B4000C04303A9087005CD017D1078012203ABA5
:103B5000083DFEF71DF9002801D10020A8550720D7
:103B6000000202AB188005CD817C10780222083D4E
:103B7000FEF70EF9002801D100242C75204609B06B
:103B8000F0BDC046F0B585B005462420DB4E305C64
:103B90000024E743002842D0B07A00283FD00291A9
:103BA000039205CE817A1078022204AB083EFDF71D
:103BB0002FFF002833D104A8417800780002421872
:103BC000AA4203D200210398017028E0706841885E
:103BD000490801928A420DD900783168497C012256
:103BE00004ABFDF715FF002819D104A80078C00622
:103BF00012D4706800783168C97AEAB2029BFDF786
:103C000007FF00280BD10198294600F099FB411EBF
:103C100003980170274602E000F006F87F1E384640
:103C200005B0F0BD1400202070B582B00026F4432A
:103C3000E64DA87A00281ED001AB1E7005CDC17BD1
:103C400010780122083DFEF7A3F8002813D105CD16
:103C500041791078012201AB083DFEF799F8002860
:103C600009D105CD01791078012201AB083DFEF79D
:103C70008FF8002802D0204602B070BD2420285CB6
:103C8000002813D001AB0C20187005CD01791078F5
:103C90000122083DFEF77CF80028ECD13220FEF727
:103CA0009DFEA87AC0073AD01F2039E001AB04205E
:103CB000187005CD017910780122083DFEF768F8EB
:103CC0000028D8D1A97A4020C907014600D0602138
:103CD000AA7C002A00D0014601AB197005CD0179FC
:103CE00010780122083DFEF753F80028C3D1322096
:103CF000FEF774FE687C411E884101AB187005CD4B
:103D0000C17B10780122083DFEF742F80028B2D1AD
:103D100005CD41791078083501222B4621E03F205E
:103D2000C04301AB187005CD017910780122083D20
:103D3000FEF72EF800289ED1687C411E8841400085
:103D400001AB187005CDC17B10780122083DFEF74C
:103D50001FF800288FD101AB1E7005CD4179107876
:103D60000122FEF715F8002885D1344683E7C046C6
:103D700014002020F0B581B001460025E843E84E4C
:103D8000B27A002A2ED08A1E0121CA41072A29D8D8
:103D90007A44127952009744030C250725252510F3
:103DA0006A46002111700CE0694610220A70022157
:103DB00007E06A460823137003E0694618220A7078
:103DC0000321727A8A4213D006CEC979147801226F
:103DD0006B4607462046083EFDF7DAFF01463846A7
:103DE000002901D001B0F0BD68460078C0087072AB
:103DF000284601B0F0BDC046F0B581B00446C84DBC
:103E0000A87CA04202D1002001B0F0BD05CD01790F
:103E1000107801226B46083DFDF7FAFD01460026A9
:103E2000F043002C1BD0002962D107466B4618785E
:103E3000DF210140197005CD017910780122083D7C
:103E4000FDF7A6FF00281FD10320FEF7C7FD294676
:103E50000831887E002836D07D20C04334E0002918
:103E600046D107466B461878DF210140A87AC00783
:103E7000800E0818187005CD017910780122083DD0
:103E8000FDF786FF002802D0384601B0F0BD0320C0
:103E9000FEF7A4FD29460831887E421E0346934161
:103EA000DA016B461A70002801D07F20C043C97E1A
:103EB000002903D0302108436946087005CD017DF3
:103EC000107801220EE002206A461070C97E002997
:103ED00003D0302108436946087005CD017D107874
:103EE00001226B46083DFDF753FF0028384601D0FC
:103EF00001B0F0BDAC74304601B0F0BD140020201C
:103F0000F0B585B02427D74EF15D0024814259D009
:103F1000002835D02520305C0025002851D000290C
:103F200002D1B07A00280CD002AB1D7005CEC17B47
:103F300010780122083EFDF72BFF002801D10298DE
:103F400070742846FFF758FFF08C00F079F801AB49
:103F50001D7070680078232101252A46FDF718FF9F
:103F6000F55503AB0220187005CEC17B10782A46A8
:103F7000083EFDF70DFF002820D1039870741DE066
:103F8000002902D1B07A00280DD004AB00201870AF
:103F900005CEC17B10780122083EFDF7F9FE00280E
:103FA00001D104987074307C01AB1870706800788F
:103FB00023210122FDF7ECFE0020F055FFF734FE2F
:103FC00000E0EC43204605B0F0BDC04614002020C0
:103FD000F0B581B001460025E843A24EB27A002A2E
:103FE00027D06A46BC2901D3012110E0622901D300
:103FF00002210CE02A2901D3032108E0142901D36E
:10400000042104E00A2901D3052100E006211170F2
:10401000F27A8A4211D006CE8978147801226B4652
:1040200007462046083EFDF7B3FE01463846002904
:1040300001D001B0F0BD0098F072284601B0F0BD8B
:10404000F0B583B0054687490026F443887A0028F6
:1040500062D02420085C00285ED1087D00280BD0A7
:10406000681E80B2272804D8E8B2FFF799FC3446CE
:1040700052E00020FFF794FC00967D20C600B54278
:1040800000D33546042D00D804253046294600F0DB
:1040900057F9401E01AB1870724D05CD417810786C
:1040A00001273A46083DFDF773FE002834D101A8E8
:1040B0000478611C304600F043F9E881A87A0028B2
:1040C00029D0012C01D802A815E0042C02D802A89E
:1040D000022710E00A2C02D802A803270BE0182CB4
:1040E00002D802A8042706E0312C02D802A805272E
:1040F00001E002A806270770E87AB8420BD005CD88
:1041000081781078012202AB083DFDF741FE0028BE
:1041100001D10298E872009C204603B0F0BDC04671
:104120001400202070B582B004464006400F02D033
:104130006846012105E06846002C01D0002100E01E
:1041400040210170474D05CD817C107801226B46DE
:10415000083DFDF71DFE00281CD1102121404842DA
:104160004841220904219143A20600D4891C081861
:10417000210700D438306B4619781870BF200840EA
:10418000287305CDC17C10780122083DFDF700FEA3
:10419000002804D00020A872C04302B070BDF720F0
:1041A000044222D02326A85D00281ED0A87C411EF0
:1041B00002468A41510001AA11702221695C00293E
:1041C00007D0002801D07D2000E07F20C04301A956
:1041D000087005CD017D1078012201AB083DFDF787
:1041E000D7FD002801D10020A85500262E75AC72FD
:1041F0003220FEF7F3FB304602B070BDF0B583B05D
:1042000003460026F043002A1CD0164FBC7A002C2F
:1042100018D002AC63701D0A2570DBB25C187B6895
:104220005D89AC420ED8009101921D783968097EF3
:10423000022202AB04462846FDF7AAFD01462046AD
:10424000002901D003B0F0BD05CF417D1078009A60
:10425000D2B2019BFDF79CFD0028F3D0F04303B0E0
:10426000F0BDC0461400202070B501210D024E02A1
:10427000174C012808DB7D2109014A1E90420ED906
:104280002D48FCF7DBF80FE0002810D47D20010159
:1042900027480022FDF7E0FA2561266170BD091A62
:1042A00023480022FDF7D8FA2660256170BD214918
:1042B000884203D82048FCF7C1F806E07D210901B7
:1042C00041181B480022FDF7C7FA2560266170BD22
:1042D00090120A4080B5012808DB7D2109014A1EA1
:1042E000904208D91448FCF7A9F809E000280DD439
:1042F0007D20010100E0091A0D480122FDF7ACFA0A
:10430000802040210D4A1160106180BD094988421A
:1043100003D80948FCF792F806E07D21090141180D
:1043200003480122FDF798FA40208021EAE7C046C1
:104330000020864030F8FFFF7F5D000090320A4089
:1043400043088B421AD3002203098B4279D3030A14
:104350008B425ED3030B8B4242D3030C8B4227D399
:104360000902FF2212BA030C8B4202D31212090275
:1043700003D0030B8B4233D31AE0D3E0411A8041C0
:10438000401C704703460B4371D443088B42F5D35E
:10439000002203098B4254D3030A8B4239D3030B07
:1043A0008B421DD3030C8B4202D394466EE0090A64
:1043B000C30B8B4201D3CB03C01A5241830B8B42F8
:1043C00001D38B03C01A5241430B8B4201D34B03E1
:1043D000C01A5241030B8B4201D30B03C01A524146
:1043E000C30A8B4201D3CB02C01A5241830A8B42CB
:1043F00001D38B02C01A5241430A8B4201D34B02B4
:10440000C01A5241030A8B4201D30B02C01A524117
:10441000CDD2C3098B4201D3CB01C01A52418309CB
:104420008B4201D38B01C01A524143098B4201D305
:104430004B01C01A524103098B4201D30B01C01A30
:104440005241C3088B4201D3CB00C01A52418308AA
:104450008B4201D38B00C01A524143088B4201D3D7
:104460004B00C01A5241411A524110007047CA0F06
:1044700000D04942031000D34042534000229C46E2
:1044800003098B422DD3030A8B4212D38901FC22EC
:1044900012BA030A8B420CD3890192118B4208D3C2
:1044A000890192118B4204D3890137D0921100E027
:1044B0008909C3098B4201D3CB01C01A5241830938
:1044C0008B4201D38B01C01A524143098B4201D365
:1044D0004B01C01A524103098B4201D30B01C01A90
:1044E0005241C3088B4201D3CB00C01A524183080A
:1044F0008B4201D38B00C01A5241D9D243088B4260
:1045000001D34B00C01A5241411A00D20146524118
:10451000104663465B1000D34042704763465B1011
:1045200000D3404201B50021004201D0C9430846F2
:10453000C046C04602BD00004900CA020243100046
:1045400000D004204A0D01D001221043044A490D35
:10455000914201D102210843012800D10520704772
:10456000FF070000F8B504464F1EC80008382118A0
:1045700015461E46086849683A4606239A4310D0F5
:104580002A463346FCF7AEFB3A46D200083AA31857
:104590001A687F1E5B68FCF751F906223B4693437D
:1045A000EED1022F23D0042F11D0062F2FD12A466F
:1045B0003346FCF797FBE36AA26AFCF73FF92A4609
:1045C0003346FCF78FFB636A226AFCF737F92A4609
:1045D0003346FCF787FBE369A269FCF72FF92A460B
:1045E0003346FCF77FFB63692269FCF727F92A460B
:1045F0003346FCF777FBE368A268FCF71FF92A460D
:104600003346FCF76FFB63682268FCF717F9F8BDC7
:1046100010B50122FCF744FE10BD10B5FCF70EF9F1
:1046200010BD002210B5134610461146FCF736F9AE
:1046300010BD0000034A10B500201107FCF730FE42
:1046400010BD000001FDFFFF30380A2801D2012013
:104650007047002070470000F0B504464F008E48B8
:104660008FB07F080D460D91874228DB40423818F5
:1046700020430CD08948874203DC874218D1002CA4
:1046800016D020462946FFF7C3FF0FB0F0BD844A7D
:10469000844B20462946FCF725FB07460E46824AF6
:1046A000824B20462946FCF71DFB3A46334649E03B
:1046B0000120FCF76FFDFFF7B4FF0FB0F0BD7C48A1
:1046C000874243DAF920800587420BDA20462946E3
:1046D000FFF732FF042801D1FFF7ACFF204629463F
:1046E0000FB0F0BD22462B4610462946FCF7FAFAD9
:1046F000064602466F480F460B4606217844FFF7F0
:1047000031FF32463B46FCF7EDFA06906A480791C6
:1047100032463B4604217844FFF724FF32463B46AD
:10472000FCF7E0FA00225C4BFCF788F802460B46E7
:1047300007990698FCF7B2F822462B46FCF7D2FA06
:1047400022462B46FCF77AF80FB0F0BD2046524CBB
:104750006900490800222346FCF788F80022D2436A
:10476000FCF79EFD0546024654480E460B460621C0
:104770007844FFF7F7FE2A463346FCF7B3FA069073
:104780004F4807912A46334604217844FFF7EAFE52
:104790002A463346FCF7A6FA00222346FCF74EF8D9
:1047A000059104902846314600F06CFA089045487F
:1047B0000C46874219DB059B049A07990698FCF77B
:1047C0006DF802460B4621460898FCF78BFA234603
:1047D000089AFCF733F80122FCF762FD304A314BAE
:1047E000FCF739F8304A314B4AE000273A460B468D
:1047F0000898FCF723F83A4623460A910E90104693
:104800001946FCF76FFA2A463346FCF72FF80A9B45
:104810000E9AFCF743F805460E46059B049A079945
:104820000698FCF73BF80091049001222846314697
:10483000FCF736FD1A4A1B4BFCF718F80E460546E6
:10484000012221460898FCF72BFD009B049AFCF7F7
:1048500049FA2A463346FBF7FEFF05460E4601227B
:1048600038462146FCF71CFD0F4C174F22463B46AD
:10487000FBF7FCFF2A463346FBF7F8FF22463B4690
:10488000FBF7F4FF0D9A002A00DD5DE70122D20755
:1048900051400FB0F0BD00000000F03F0000F07F7D
:1048A000075C143326A6913C182D4454FB21F93F94
:1048B0000000E03F380900004E090000C408000075
:1048C000DA0800003333EF3FFB21E93FF0B589B050
:1048D00004460D464800069172494008884215DB9F
:1048E0007149884203DC884207D1002C05D020465C
:1048F0002946FFF78DFE09B0F0BD6C48002D02DDA2
:104900006B4909B0F0BD6B4909B0F0BD6A498842F6
:1049100011DA6A4988420BDA20462946FFF70CFE75
:10492000042801D1FFF786FE2046294609B0F0BDD4
:104930000026F6435DE06D0061496D08884232DA79
:104940006049884219DA0026012332469B07204637
:104950002946FBF773FF07460191012220462946AD
:10496000FCF79EFC0022584BFBF775FF3A46019B73
:10497000FBF794FF04460D463BE001260022524B14
:1049800020462946FBF75AFF0746009100224E4B6E
:1049900020462946FBF75FFF3A46009BFBF77EFF68
:1049A00004460D4625E04949884219DA02260022CC
:1049B000474B20462946FCF795F90022424BFBF76E
:1049C0003DFF074602910022414B20462946FBF756
:1049D00042FF3A46029BFBF761FF04460D4608E0A2
:1049E000032622462B4600203A49FBF757FF044690
:1049F0000D4622462B4610461946FCF773F907462A
:104A00000B4602460191FCF76DF9024602903248CE
:104A10000B46039106217844FFF7A4FD3A46019B1B
:104A2000FCF760F900902D48019105217844039B23
:104A3000029AFFF797FD039B029AFCF753F902468F
:104A40000B4601990098002E0BDAFBF7F7FE224681
:104A50002B46FCF747F922462B46FBF707FF09B028
:104A6000F0BDFBF7EBFE22462B46FCF73BF91C4A58
:104A7000F6007A4493191A685B68FBF7ECFE22464D
:104A80002B46FBF7E8FE174A7A4493191A685B68CD
:104A9000FBF7ECFE069A002AE1DA0122D207514028
:104AA00009B0F0BD000010440000F07F182D445400
:104AB000FB21F93FFB21F9BF0000DC3F0000203E55
:104AC0000000F33F0000E63F0000F03F008003409D
:104AD0000000F83F0000F0BFD60600009806000076
:104AE00032060000FC050000F0B51FB4039A029DD9
:104AF00053006E422E439446F40F5B084A00574E13
:104B000052081C438E46B44205D847420743FC0F67
:104B10001443B44205D92A466346FFF77EFD05B02B
:104B2000F0BD4F4E66442E430AD0CC0F6646B617F2
:104B300002273E40264304464A4F144304D00BE06C
:104B4000FFF7C4FE05B0F0BD002EFBD0012EF9D05A
:104B5000022E32D0032E34D01C462C430BD03F4CB7
:104B6000A34216D1A2420AD1012189078B438A436D
:104B7000114603930DE0704600280FDB25E03A4D07
:104B80007D44002E0ED0012E10D0022E15D0032E03
:104B900017D0A2421DD17046002816DA3148334999
:104BA00005B0F0BD6968286805B0F0BD01226968EC
:104BB000D2072868514005B0F0BD38462C4905B0F1
:104BC000F0BD38462B4905B0F0BD26482A4905B04E
:104BD000F0BDD21A12153C2A02DD224D264C12E0FD
:104BE0006346002B05DA3C23DA4202DA00252C4624
:104BF00009E0039B029AFBF751FE49004908FFF7C1
:104C000065FE05460C46002E12D0012E0DD01B4A23
:104C10001B4B022E2846214618D0FBF71CFE3A46B5
:104C2000134BFBF718FE05B0F0BD0120C007444050
:104C3000002213462846214600F048F802D10220FF
:104C4000FCF7A8FA2846214605B0F0BDFBF703FEA5
:104C50003A46074BFBF70AFE05B0F0BD0000F07FB7
:104C6000000010C0182D44549C050000FB21F9BF22
:104C7000FB210940FB2109C0FB21F93F075C1433EC
:104C800026A6A13CF8B506460C46FCF7A9FB051E76
:104C90000F4600D00120014349000B484908411A42
:104CA000C90F0DD0002E01D0012100E000210C43DE
:104CB00061004908401AC00F02D10120FCF76AFACE
:104CC00028463946F8BD00000000F07F70B5012588
:104CD0002D050C001C4310D4EC4206D4AC420AD47F
:104CE000994200D070BD904270BDE94217D4EB42AA
:104CF00015D4994270BD894270BDEC4206D5AC42D4
:104D0000F9D58B4200D070BD824270BD6D004C0061
:104D1000EC4204D25C00EC4201D28B4270BD034CE9
:104D200030B4FCF70DFB30BC70BD00BF190012049D
:104D300070B50125ED0704004C4020D4441A01D27F
:104D4000001B0919C60D4B00F2B2FF2A29D01B0E19
:104D50002CD000020C0228432C43D31ADC40051946
:104D600010D2280A02D3401C6D0611D0761EF6051B
:104D70008019FF2A00DA70BDC00DC00570BD694002
:104D800000F07AF801200543C541521C761CE8E783
:104D900064089C40C90161408900E7D10124A04317
:104DA000E4E71B0E440200D0034870BD002AFCD18A
:104DB000C00FC00770BD00BF0000C07F70B54200CB
:104DC00064414B005C41120E39D01B0E38D0FF2AD3
:104DD0003CD0FF2B3AD0D2187F3A40024902400A19
:104DE000490A4518ED0106004E43000A090A4843E6
:104DF0000104731A4019190C4318990F04D05B0869
:104E0000012149075B1A521CD80904D3401CF50341
:104E100001D19D0607D0FF2A08D2D50506D0E407A8
:104E20002043401970BD0125A843F4E7002A01DCA6
:104E3000E00770BD2402FF202043C00570BD1B0E9B
:104E4000FF2A03D0FF2B01D0E00770BDFF263606F6
:104E50004500B54206D84D00B54203D8D218FF2A06
:104E600000D0E7E7004870BD0000C07F70B50125A5
:104E7000ED0704004C4022D4441A02D26C40001BBF
:104E80000919C60D4B00F2B2FF2A4BD01B0E50D0B1
:104E900000020C02A8432C43D31ADC40051B05D5A5
:104EA000AD0019D36D08761E521E37D0F605280ABC
:104EB00001D2801970BD70416D0603D070BD69408C
:104EC000FFF73CFF9C4009026140490001D0401EB1
:104ED00070BD0124A04370BD6D081DD001202B0CB6
:104EE00001D12D0410302B0E01D12D0208302B0FD3
:104EF00001D12D01001DAB0F01D1AD00801CEB0FC6
:104F000001D16D00401C361A121A6D00680AF505B1
:104F10004019012A02DB70BD002070BDC036300A86
:104F2000C00770BD1B0E440201D1FF2B00D1024807
:104F300070BD002AF0D070BD0000C07F3031323328
:104F400034353637383941424344454640305800BD
:104F500030313233343536373839616263646566EF
:104F6000403078000400000800000000000000024B
:104F7000000100001080807F7E7D7C7B7A797877CD
:104F80007676757473727171706F6E6E6D6C6C6B1A
:104F90006A6A6968686766666564646363626161BA
:104FA00060605F5F5E5E5D5D5C5C5B5B5A5A595939
:104FB00058585757565655555554545353525252A4
:104FC00051515050504F4F4F4E4E4D4D4D4C4C4CFB
:104FD0004B4B4B4A4A4A4949494848484747474743
:104FE0004646464545454444444443434343424280
:104FF00042424141418182838485868788898B8CA6
:105000008D8E8F919293959697999A9C9D9FA0A231
:10501000A3A5A7A8AAACAEB0B2B3B5B7B9BCBEC081
:10502000C2C5C7C9CCCED1D4D7D9DCDFE2E6E9EC22
:10503000F0F3F7FAFE000000555555555555C53F9C
:105040007D6FEB0312D6D4BF5544880E55C1C93FBE
:105050003B8F68B52882A4BF88B20175E0EF493F55
:1050600009F7FD0DE13D023F4B2D8A1C273A03C095
:10507000C88A599CE52A004059018D1B6C06E6BF81
:1050800082922EB1C5B8B33F4FBB610567ACDD3F1F
:10509000182D4454FB21E93F9BF681D20B73EF3F5F
:1050A000182D4454FB21F93FE2652F227F2B7A3CD7
:1050B000075C143326A6813CBDCBF07A8807703C90
:1050C000075C143326A6913CC4EB98999999C9BF03
:1050D000711623FEC671BCBF6D9A74AFF2B0B3BF38
:1050E0009AFDDE522DDEADBF2F6C6A2C44B4A2BFF8
:1050F0000D5555555555D53FFF8300922449C23F64
:105100006E204CC5CD45B73F513DD0A0660DB13F97
:10511000EB0D76244B7BA93F11DA22E33AAD903FA9
:1051200000000000000000000CC92C4CCD6C0000F9
:105130007000000000240000000200030000006571
:105140000054FFEF0000FA80000B12820001030CF4
:1051500030C30E8C8CE914D5400213710F8E388346
:10516000F8833000F883258EF8833000F883FFFF42
:10517000FFFF0FFEA9D6240004001A8279A10000C7
:10518000003CFFFF00000010000038836FA2003ECB
:1051900003304000000002CAE3093E800000200006
:1051A0000000000000004000000060000000000C53
:1051B0000000000C186E000006920A16C0DFFFFF08
:1051C0000256FD8CD377FFE1C496E0C5BEAA00006D
:1051D0000000FFFF0B2B0000165700000359400092
:1051E000000000001DFA00026C1D000000003FFFDF
:1051F000DFEB003EB3B6000D227800002F3C00002C
:105200000000001942B5000039A20000B365D90EB4
:105210009FC91DCF4C3430000000500000003BB649
:105220007AE80064000000C80000000000001000E0
:1052300000001000FA921000225E000D229F000173
:10524000000000320000FF46000063D400001000A0
:10525000000004D6000004CC000004CC00000000D4
:105260001072000000400000000000000000000676
:1052700000020005000700000000006400000000BC
:105280000000000000050005006400200000000090
:1052900000000000000000004000000003000000CB
:1052A0000032F8980000FF650000830F0000FF9BAC
:1052B000FC000000000000000000000000000000F2
:1052C00000000000000000000000000000000000DE
:1052D000000000000000000000000000100040007E
:1052E0000000000000060000B26A00020000000199
:1052F000FB830068000000D9FC007CF1FF83000004
:10530000000000650000006403E80064002800005D
:1053100000250000000016A00000000010000000A2
:105320001000002F0000000001F400001000002811
:105330000000FFFF4581FFFFFA720000000000003F
:105340000000004400050005BAC6004778A200002E
:105350000001000000000000060000000014000032
:10536000254D002F706D000005AE000C02D000002E
:105370000000000000000000000000000000001B12
:1053800000000000000000000000000000000064B9
:105390000000000800000000000000000000000005
:1053A00000000000000000000000000000000000FD
:1053B00000000000000000000000000000000000ED
:1053C00000000000000000000000000000000000DD
:1053D00000000000000000000000000000000000CD
:1053E0000000000000000000000000000000001BA2
:1053F00000000000000000000000000E000E000091
:105400000AC70004000000000032FFFFFF9C0000FC
:105410000B2B000000020000000100000064FFE50B
:10542000000000000000000000000000000000007C
:105430000001000000000001000000000000000169
:1054400080000001800000018000002426D30000BD
:10545000000000000000000600100096003C000064
:1054600000000000000000000000000000000C0A26
:105470004E68CDCF770950166759C619CE82000005
:10548000000000000000000000000000000000001C
:1054900000000000000017D7840003000000000097
:1054A000000000000000C7938F9D1E1B1C19000008
:1054B00000000000000000000000000000000000EC
:1054C00000000000000002031885000040000000FA
:1054D0000003000000030000000000000000400086
:1054E00000000000000000000000000000000000BC
:1054F00000000000000000000000000000000000AC
:10550000000000000000000000000000000000009B
:105510000000677DDF7E72902E554CF6E688000015
:105520000000000000000000000000000000D8DCC7
:10553000B4B8B0D8B9ABF3F8FAB3B7BB8E9EAEF13E
:1055400032F51BF1B4B8B08097F1A9DFDFDFAADF35
:10555000DFDFF2AAC5CDC7A90CC92C97F1A989260E
:105560004666B28999A92D557DB0B08AA89636565F
:1055700076F1BAA3B4B280C0B8A89711B28398BA32
:10558000A3F0240844106418B2B9B49883F1A32995
:10559000557DBAB5B1A38393F0002850F5B2B6AAF1
:1055A000839328547CF1B9A3829361BAA2DADEDF37
:1055B000DB819AB9AEF5606870F1DABAA2DFD9BAC8
:1055C000A2FAB9A38292DB31BAA2D9BAA2F8DF85D6
:1055D000A4D0C1BBAD83C2C5C7B8A2DFDFDFBAA00C
:1055E000DFDFDFD8D8F1B8AAB38DB4980D355DB23E
:1055F000B6BAAF8C96198F9FA70E161EB49AB8AA8A
:10560000872C547CBAA4B08AB691325676B2849470
:10561000A4C808CDD8B8B4B0F19982A82D557D980A
:10562000A80E161EA22C547C92A4F02C5078F18463
:10563000A898C4CDFCD80DDBA8FC2DF3D9BAA6F8E8
:10564000DABAA6DED8BAB2B68696A6D0F3C841DAE0
:10565000A6C8F8D8B0B4B882A892F52C548898F1AE
:1056600035D9F418D8F1A2D0F8F9A884D9C7DFF851
:10567000F883C5DADF69DF83C1D8F40114F1A882A9
:105680004EA884F311D182F5D992289788F109F4B4
:105690001C1CD884A8F3C0F9D1D99782F129F40D44
:1056A000D8F3F9F9D1D982F4C203D8DEDF1AD8F1E0
:1056B000A2FAF9A88498D9C7DFF8F8F883C7DADF27
:1056C00069DFF883C3D8F40114F198A8822EA88466
:1056D000F311D182F5D992509788F109F41CD8843E
:1056E000A8F3C0F8F9D1D99782F149F40DD8F3F9AC
:1056F000F9D1D982F4C403D8DEDFD8F1AD8898CCD3
:10570000A809F9D98292A8F57CF1883ACF944A6E1B
:1057100098DB6931DAADF2DEF9D88795A8F221D1AC
:10572000DAA5F9F417D9F1AE8ED0C0C3AE82C68423
:10573000C3A88595C8A588F2C0F1F4010EF18E9E2C
:10574000A8C63E56F554F18872F40115F1984585C6
:105750006EF58E9E0488F142985A8E9E068869F4F2
:10576000011CF1981E1108D0F504F11E9702029851
:105770003625DBF9D985A5F3C1DA85A5F3DFD88510
:1057800095A8F309DAA5FAD88292A8F578F1881AD3
:10579000849F26889821DAF41DF3D8879F39D1AFEA
:1057A000D9DFDFFBF9F40CF3D8FAD0F8DAF9F9D045
:1057B000DFD9F9D8F40BD8F3879F39D1AFD9DFDF20
:1057C000F41DF3D8FAFCA869F9F9AFD0DADEFAD9FA
:1057D000F88F9FA8F1CCF398DB45D9AFDFD0F8D88C
:1057E000F18F9FA8CAF38809DAAF8FCBF8D8F2AD52
:1057F000978D0CD9A5DFF9BAA6F3FAF412F2D89571
:105800000DD1D9BAA6F3FADAA5F2C1BAA6F3DFD858
:10581000F1BAB2B68696A6D0CAF349DAA6CBF8D8C2
:10582000B0B4B8D8AD84F2C0DFF18FCBC3A8B2B6A4
:105830008696C8C1CBC3F3B0B48898A821DB718D1C
:105840009D71859521D9ADF2FAD88597A828D9F40C
:1058500008D8F28D29DAF405D9F285A4C2F2D8A8C5
:105860008D9401D1D9F411F2D88721D8F40AD8F255
:105870008498A8C801D1D9F411D8F3A4C8BBAFD07B
:10588000F2DEF8F8F8F8F8F8F8F8D8F1B8F6B5B9A3
:10589000B08A95A3DE3CA3D9F8D85CA3D9F8D87C0C
:1058A000A3D9F8D8F8F9D1A5D9DFDAFAD8B185307B
:1058B000F7D9DED8F830ADDADED8F2B48C99A32D62
:1058C000557DA083DFDFDFB591A0F629D9FBD8A0F5
:1058D000FC29D9FAD8A0D051D9F8D8FC51D9F9D897
:1058E00079D9FBD8A0D0FC79D9FAD8A1F9F9F9F97E
:1058F000F9A0DADFDFDFD8A1F8F8F8F8F8ACDEF8C5
:10590000ADDE8393AC2C547CF1A8DFDFDFF69D2C59
:10591000DAA0DFD9FADB2DF8D8A850DAA0D0DED98A
:10592000D0F8F8F8DB55F8D8A878DAA0D0DFD9D0CD
:10593000FAF8F8F8F8DB7DF8D89CA88CF530DB385D
:10594000D9D0DEDFA0D0DEDFD8A848DB58D9DFD041
:10595000DEA0DFD0DED8A868DB70D9DFDFA0DFDF14
:10596000D8F1A888902C547C98A8D05C38D1DAF271
:10597000AE8CDFF9D8B087A8C1C1B188A8C6F9F943
:10598000DA36D8A8F9DA36D8A8F9DA36D8A8F9DAA2
:1059900036D8A8F9DA36D8F78D9DADF818DAF2AE18
:1059A000DFD8F7ADFA30D9A4DEF9D8F2AEDEFAF9D5
:1059B00083A7D9C3C5C7F1889BA77AADF7DEDFA45B
:1059C000F8849408A797F300AEF29819A488C6A3A8
:1059D0009488F632DFF28393DB09D9F2AADFD8D8B4
:1059E000AEF8F9D1DAF3A4DEA7F1889B7AD8F38474
:1059F00094AE19F9DAAAF1DFD8A881C0C3C5C7A34C
:105A00009283F628ADDED9F8D8A350ADD9F8D8A343
:105A100078ADD9F8D8F8F9D1A1DADEC3C5C7D8A1D5
:105A20008194F818F2B089ACC3C5C7F1D8B8B4B046
:105A30009786A8319B069907AB9728889BF00C2086
:105A40001440B0B4B8F0A88A9A285078B79BA82917
:105A50005179247059446938644831F1BBAB8800EE
:105A60002C547CF0B38BB8A804285078F1B088B4DB
:105A70009726A85998BBABB38B02264666B0B8F000
:105A80008A9CA82951798B2951798A2470598B20B5
:105A900058718A4469388B3940688A6448318B3040
:105AA000496088F1AC002C547CF08CA80428507814
:105AB000F1889726A85998AC8C02264666F0899CF6
:105AC000A8295179247059446938644831A9880952
:105AD000205970AB11384069A8193148608CA83C36
